{
  "_format": "hh-sol-artifact-1",
  "contractName": "KnightNFT",
  "sourceName": "contracts/KnightNFT.sol",
  "abi": [
    {
      "inputs": [],
      "name": "AccessControlBadConfirmation",
      "type": "error"
    },
    {
      "inputs": [
        {
          "internalType": "address",
          "name": "account",
          "type": "address"
        },
        {
          "internalType": "bytes32",
          "name": "neededRole",
          "type": "bytes32"
        }
      ],
      "name": "AccessControlUnauthorizedAccount",
      "type": "error"
    },
    {
      "inputs": [
        {
          "internalType": "address",
          "name": "sender",
          "type": "address"
        },
        {
          "internalType": "uint256",
          "name": "tokenId",
          "type": "uint256"
        },
        {
          "internalType": "address",
          "name": "owner",
          "type": "address"
        }
      ],
      "name": "ERC721IncorrectOwner",
      "type": "error"
    },
    {
      "inputs": [
        {
          "internalType": "address",
          "name": "operator",
          "type": "address"
        },
        {
          "internalType": "uint256",
          "name": "tokenId",
          "type": "uint256"
        }
      ],
      "name": "ERC721InsufficientApproval",
      "type": "error"
    },
    {
      "inputs": [
        {
          "internalType": "address",
          "name": "approver",
          "type": "address"
        }
      ],
      "name": "ERC721InvalidApprover",
      "type": "error"
    },
    {
      "inputs": [
        {
          "internalType": "address",
          "name": "operator",
          "type": "address"
        }
      ],
      "name": "ERC721InvalidOperator",
      "type": "error"
    },
    {
      "inputs": [
        {
          "internalType": "address",
          "name": "owner",
          "type": "address"
        }
      ],
      "name": "ERC721InvalidOwner",
      "type": "error"
    },
    {
      "inputs": [
        {
          "internalType": "address",
          "name": "receiver",
          "type": "address"
        }
      ],
      "name": "ERC721InvalidReceiver",
      "type": "error"
    },
    {
      "inputs": [
        {
          "internalType": "address",
          "name": "sender",
          "type": "address"
        }
      ],
      "name": "ERC721InvalidSender",
      "type": "error"
    },
    {
      "inputs": [
        {
          "internalType": "uint256",
          "name": "tokenId",
          "type": "uint256"
        }
      ],
      "name": "ERC721NonexistentToken",
      "type": "error"
    },
    {
      "inputs": [],
      "name": "EnforcedPause",
      "type": "error"
    },
    {
      "inputs": [],
      "name": "ExpectedPause",
      "type": "error"
    },
    {
      "inputs": [],
      "name": "InvalidInitialization",
      "type": "error"
    },
    {
      "inputs": [],
      "name": "InvalidValues",
      "type": "error"
    },
    {
      "inputs": [],
      "name": "NotInitializing",
      "type": "error"
    },
    {
      "inputs": [],
      "name": "ReentrancyGuardReentrantCall",
      "type": "error"
    },
    {
      "anonymous": false,
      "inputs": [
        {
          "indexed": true,
          "internalType": "address",
          "name": "owner",
          "type": "address"
        },
        {
          "indexed": true,
          "internalType": "address",
          "name": "approved",
          "type": "address"
        },
        {
          "indexed": true,
          "internalType": "uint256",
          "name": "tokenId",
          "type": "uint256"
        }
      ],
      "name": "Approval",
      "type": "event"
    },
    {
      "anonymous": false,
      "inputs": [
        {
          "indexed": true,
          "internalType": "address",
          "name": "owner",
          "type": "address"
        },
        {
          "indexed": true,
          "internalType": "address",
          "name": "operator",
          "type": "address"
        },
        {
          "indexed": false,
          "internalType": "bool",
          "name": "approved",
          "type": "bool"
        }
      ],
      "name": "ApprovalForAll",
      "type": "event"
    },
    {
      "anonymous": false,
      "inputs": [
        {
          "indexed": false,
          "internalType": "uint64",
          "name": "version",
          "type": "uint64"
        }
      ],
      "name": "Initialized",
      "type": "event"
    },
    {
      "anonymous": false,
      "inputs": [
        {
          "indexed": false,
          "internalType": "address",
          "name": "account",
          "type": "address"
        }
      ],
      "name": "Paused",
      "type": "event"
    },
    {
      "anonymous": false,
      "inputs": [
        {
          "indexed": true,
          "internalType": "bytes32",
          "name": "role",
          "type": "bytes32"
        },
        {
          "indexed": true,
          "internalType": "bytes32",
          "name": "previousAdminRole",
          "type": "bytes32"
        },
        {
          "indexed": true,
          "internalType": "bytes32",
          "name": "newAdminRole",
          "type": "bytes32"
        }
      ],
      "name": "RoleAdminChanged",
      "type": "event"
    },
    {
      "anonymous": false,
      "inputs": [
        {
          "indexed": true,
          "internalType": "bytes32",
          "name": "role",
          "type": "bytes32"
        },
        {
          "indexed": true,
          "internalType": "address",
          "name": "account",
          "type": "address"
        },
        {
          "indexed": true,
          "internalType": "address",
          "name": "sender",
          "type": "address"
        }
      ],
      "name": "RoleGranted",
      "type": "event"
    },
    {
      "anonymous": false,
      "inputs": [
        {
          "indexed": true,
          "internalType": "bytes32",
          "name": "role",
          "type": "bytes32"
        },
        {
          "indexed": true,
          "internalType": "address",
          "name": "account",
          "type": "address"
        },
        {
          "indexed": true,
          "internalType": "address",
          "name": "sender",
          "type": "address"
        }
      ],
      "name": "RoleRevoked",
      "type": "event"
    },
    {
      "anonymous": false,
      "inputs": [
        {
          "indexed": true,
          "internalType": "address",
          "name": "from",
          "type": "address"
        },
        {
          "indexed": true,
          "internalType": "address",
          "name": "to",
          "type": "address"
        },
        {
          "indexed": true,
          "internalType": "uint256",
          "name": "tokenId",
          "type": "uint256"
        }
      ],
      "name": "Transfer",
      "type": "event"
    },
    {
      "anonymous": false,
      "inputs": [
        {
          "indexed": false,
          "internalType": "address",
          "name": "account",
          "type": "address"
        }
      ],
      "name": "Unpaused",
      "type": "event"
    },
    {
      "inputs": [],
      "name": "ADMIN_ROLE",
      "outputs": [
        {
          "internalType": "bytes32",
          "name": "",
          "type": "bytes32"
        }
      ],
      "stateMutability": "view",
      "type": "function"
    },
    {
      "inputs": [],
      "name": "DEFAULT_ADMIN_ROLE",
      "outputs": [
        {
          "internalType": "bytes32",
          "name": "",
          "type": "bytes32"
        }
      ],
      "stateMutability": "view",
      "type": "function"
    },
    {
      "inputs": [],
      "name": "MINTER_ROLE",
      "outputs": [
        {
          "internalType": "bytes32",
          "name": "",
          "type": "bytes32"
        }
      ],
      "stateMutability": "view",
      "type": "function"
    },
    {
      "inputs": [],
      "name": "OWNER_ROLE",
      "outputs": [
        {
          "internalType": "bytes32",
          "name": "",
          "type": "bytes32"
        }
      ],
      "stateMutability": "view",
      "type": "function"
    },
    {
      "inputs": [],
      "name": "PAUSER_ROLE",
      "outputs": [
        {
          "internalType": "bytes32",
          "name": "",
          "type": "bytes32"
        }
      ],
      "stateMutability": "view",
      "type": "function"
    },
    {
      "inputs": [],
      "name": "UTILITY_ROLE",
      "outputs": [
        {
          "internalType": "bytes32",
          "name": "",
          "type": "bytes32"
        }
      ],
      "stateMutability": "view",
      "type": "function"
    },
    {
      "inputs": [],
      "name": "VRF_CALLBACK_DELIVERY_ROLE",
      "outputs": [
        {
          "internalType": "bytes32",
          "name": "",
          "type": "bytes32"
        }
      ],
      "stateMutability": "view",
      "type": "function"
    },
    {
      "inputs": [
        {
          "internalType": "address",
          "name": "to",
          "type": "address"
        },
        {
          "internalType": "uint256",
          "name": "tokenId",
          "type": "uint256"
        }
      ],
      "name": "approve",
      "outputs": [],
      "stateMutability": "nonpayable",
      "type": "function"
    },
    {
      "inputs": [
        {
          "internalType": "address",
          "name": "owner",
          "type": "address"
        }
      ],
      "name": "balanceOf",
      "outputs": [
        {
          "internalType": "uint256",
          "name": "",
          "type": "uint256"
        }
      ],
      "stateMutability": "view",
      "type": "function"
    },
    {
      "inputs": [
        {
          "internalType": "uint256",
          "name": "tokenId",
          "type": "uint256"
        }
      ],
      "name": "getApproved",
      "outputs": [
        {
          "internalType": "address",
          "name": "",
          "type": "address"
        }
      ],
      "stateMutability": "view",
      "type": "function"
    },
    {
      "inputs": [
        {
          "internalType": "bytes32",
          "name": "role",
          "type": "bytes32"
        }
      ],
      "name": "getRoleAdmin",
      "outputs": [
        {
          "internalType": "bytes32",
          "name": "",
          "type": "bytes32"
        }
      ],
      "stateMutability": "view",
      "type": "function"
    },
    {
      "inputs": [
        {
          "internalType": "bytes32",
          "name": "role",
          "type": "bytes32"
        },
        {
          "internalType": "address",
          "name": "account",
          "type": "address"
        }
      ],
      "name": "grantRole",
      "outputs": [],
      "stateMutability": "nonpayable",
      "type": "function"
    },
    {
      "inputs": [
        {
          "internalType": "bytes32",
          "name": "role",
          "type": "bytes32"
        },
        {
          "internalType": "address",
          "name": "account",
          "type": "address"
        }
      ],
      "name": "hasRole",
      "outputs": [
        {
          "internalType": "bool",
          "name": "",
          "type": "bool"
        }
      ],
      "stateMutability": "view",
      "type": "function"
    },
    {
      "inputs": [
        {
          "internalType": "address",
          "name": "initialOwner",
          "type": "address"
        }
      ],
      "name": "initialize",
      "outputs": [],
      "stateMutability": "nonpayable",
      "type": "function"
    },
    {
      "inputs": [
        {
          "internalType": "address",
          "name": "owner",
          "type": "address"
        },
        {
          "internalType": "address",
          "name": "operator",
          "type": "address"
        }
      ],
      "name": "isApprovedForAll",
      "outputs": [
        {
          "internalType": "bool",
          "name": "",
          "type": "bool"
        }
      ],
      "stateMutability": "view",
      "type": "function"
    },
    {
      "inputs": [],
      "name": "name",
      "outputs": [
        {
          "internalType": "string",
          "name": "",
          "type": "string"
        }
      ],
      "stateMutability": "view",
      "type": "function"
    },
    {
      "inputs": [
        {
          "internalType": "address",
          "name": "to",
          "type": "address"
        }
      ],
      "name": "openMint",
      "outputs": [],
      "stateMutability": "nonpayable",
      "type": "function"
    },
    {
      "inputs": [
        {
          "internalType": "uint256",
          "name": "tokenId",
          "type": "uint256"
        }
      ],
      "name": "ownerOf",
      "outputs": [
        {
          "internalType": "address",
          "name": "",
          "type": "address"
        }
      ],
      "stateMutability": "view",
      "type": "function"
    },
    {
      "inputs": [],
      "name": "pause",
      "outputs": [],
      "stateMutability": "nonpayable",
      "type": "function"
    },
    {
      "inputs": [],
      "name": "paused",
      "outputs": [
        {
          "internalType": "bool",
          "name": "",
          "type": "bool"
        }
      ],
      "stateMutability": "view",
      "type": "function"
    },
    {
      "inputs": [
        {
          "internalType": "bytes32",
          "name": "role",
          "type": "bytes32"
        },
        {
          "internalType": "address",
          "name": "callerConfirmation",
          "type": "address"
        }
      ],
      "name": "renounceRole",
      "outputs": [],
      "stateMutability": "nonpayable",
      "type": "function"
    },
    {
      "inputs": [
        {
          "internalType": "bytes32",
          "name": "role",
          "type": "bytes32"
        },
        {
          "internalType": "address",
          "name": "account",
          "type": "address"
        }
      ],
      "name": "revokeRole",
      "outputs": [],
      "stateMutability": "nonpayable",
      "type": "function"
    },
    {
      "inputs": [
        {
          "internalType": "address",
          "name": "from",
          "type": "address"
        },
        {
          "internalType": "address",
          "name": "to",
          "type": "address"
        },
        {
          "internalType": "uint256",
          "name": "tokenId",
          "type": "uint256"
        }
      ],
      "name": "safeTransferFrom",
      "outputs": [],
      "stateMutability": "nonpayable",
      "type": "function"
    },
    {
      "inputs": [
        {
          "internalType": "address",
          "name": "from",
          "type": "address"
        },
        {
          "internalType": "address",
          "name": "to",
          "type": "address"
        },
        {
          "internalType": "uint256",
          "name": "tokenId",
          "type": "uint256"
        },
        {
          "internalType": "bytes",
          "name": "data",
          "type": "bytes"
        }
      ],
      "name": "safeTransferFrom",
      "outputs": [],
      "stateMutability": "nonpayable",
      "type": "function"
    },
    {
      "inputs": [
        {
          "internalType": "address",
          "name": "operator",
          "type": "address"
        },
        {
          "internalType": "bool",
          "name": "approved",
          "type": "bool"
        }
      ],
      "name": "setApprovalForAll",
      "outputs": [],
      "stateMutability": "nonpayable",
      "type": "function"
    },
    {
      "inputs": [
        {
          "internalType": "bytes4",
          "name": "interfaceId",
          "type": "bytes4"
        }
      ],
      "name": "supportsInterface",
      "outputs": [
        {
          "internalType": "bool",
          "name": "",
          "type": "bool"
        }
      ],
      "stateMutability": "view",
      "type": "function"
    },
    {
      "inputs": [],
      "name": "symbol",
      "outputs": [
        {
          "internalType": "string",
          "name": "",
          "type": "string"
        }
      ],
      "stateMutability": "view",
      "type": "function"
    },
    {
      "inputs": [],
      "name": "tokenIdCounter",
      "outputs": [
        {
          "internalType": "uint256",
          "name": "",
          "type": "uint256"
        }
      ],
      "stateMutability": "view",
      "type": "function"
    },
    {
      "inputs": [
        {
          "internalType": "uint256",
          "name": "tokenId",
          "type": "uint256"
        }
      ],
      "name": "tokenURI",
      "outputs": [
        {
          "internalType": "string",
          "name": "",
          "type": "string"
        }
      ],
      "stateMutability": "view",
      "type": "function"
    },
    {
      "inputs": [
        {
          "internalType": "address",
          "name": "from",
          "type": "address"
        },
        {
          "internalType": "address",
          "name": "to",
          "type": "address"
        },
        {
          "internalType": "uint256",
          "name": "tokenId",
          "type": "uint256"
        }
      ],
      "name": "transferFrom",
      "outputs": [],
      "stateMutability": "nonpayable",
      "type": "function"
    },
    {
      "inputs": [],
      "name": "unpause",
      "outputs": [],
      "stateMutability": "nonpayable",
      "type": "function"
    }
  ],
  "bytecode": "0x608060405234801561001057600080fd5b50611c07806100206000396000f3fe608060405234801561001057600080fd5b50600436106101e55760003560e01c80638456cb591161010f578063c4d66de8116100a2578063d547741f11610071578063d547741f14610449578063e58378bb1461045c578063e63ab1e914610483578063e985e9c51461049857600080fd5b8063c4d66de8146103d5578063c87b56dd146103e8578063d4abd2f4146103fb578063d53913931461042257600080fd5b806398bdf6f5116100de57806398bdf6f51461039e578063a217fddf146103a7578063a22cb465146103af578063b88d4fde146103c257600080fd5b80638456cb59146103545780638f2967591461035c57806391d148541461038357806395d89b411461039657600080fd5b806336568abe116101875780635c975abb116101565780635c975abb146102ef5780636352211e1461030757806370a082311461031a57806375b238fc1461032d57600080fd5b806336568abe146102ae5780633f4ba83a146102c157806342842e0e146102c95780635693ff3c146102dc57600080fd5b8063095ea7b3116101c3578063095ea7b31461025257806323b872dd14610267578063248a9ca31461027a5780632f2ff15d1461029b57600080fd5b806301ffc9a7146101ea57806306fdde0314610212578063081812fc14610227575b600080fd5b6101fd6101f83660046116a7565b6104ab565b60405190151581526020015b60405180910390f35b61021a6104bc565b6040516102099190611714565b61023a610235366004611727565b610560565b6040516001600160a01b039091168152602001610209565b61026561026036600461175c565b610575565b005b610265610275366004611786565b610584565b61028d610288366004611727565b610614565b604051908152602001610209565b6102656102a93660046117c2565b610636565b6102656102bc3660046117c2565b610652565b61026561068a565b6102656102d7366004611786565b6106ad565b6102656102ea3660046117ee565b6106c8565b600080516020611bb28339815191525460ff166101fd565b61023a610315366004611727565b6106ea565b61028d6103283660046117ee565b6106f5565b61028d7fa49807205ce4d355092ef5a8a18f56e8913cf4a201fbe287825b095693c2177581565b610265610751565b61028d7f35af5b5a3fb4c88a8cb5e26e8a68a53cc8f6cafcc4000a1db1ae5753e25a168e81565b6101fd6103913660046117c2565b610771565b61021a6107a9565b61028d60325481565b61028d600081565b6102656103bd366004611809565b6107e8565b6102656103d036600461185b565b6107f3565b6102656103e33660046117ee565b61080a565b61021a6103f6366004611727565b610963565b61028d7ffac2ca1f36146faa39c5bcc0b960d021ea7055ceba427adb32a1937cb8af07e881565b61028d7f9f2df0fed2c77648de5860a4cc508cd0818c85b8b8a1ab4ceeef8d981c8956a681565b6102656104573660046117c2565b6109d8565b61028d7fb19546dff01e856fb3f010c267a7b1c60363cf8a4664e21cc89c26224620214e81565b61028d600080516020611b7283398151915281565b6101fd6104a6366004611937565b6109f4565b60006104b682610a41565b92915050565b600080516020611b5283398151915280546060919081906104dc90611961565b80601f016020809104026020016040519081016040528092919081815260200182805461050890611961565b80156105555780601f1061052a57610100808354040283529160200191610555565b820191906000526020600020905b81548152906001019060200180831161053857829003601f168201915b505050505091505090565b600061056b82610a81565b506104b682610ab9565b610580828233610af3565b5050565b6001600160a01b0382166105b357604051633250574960e11b8152600060048201526024015b60405180910390fd5b60006105c0838333610b00565b9050836001600160a01b0316816001600160a01b03161461060e576040516364283d7b60e01b81526001600160a01b03808616600483015260248201849052821660448201526064016105aa565b50505050565b6000908152600080516020611b92833981519152602052604090206001015490565b61063f82610614565b61064881610c0a565b61060e8383610c14565b6001600160a01b038116331461067b5760405163334bd91960e11b815260040160405180910390fd5b6106858282610cb9565b505050565b600080516020611b728339815191526106a281610c0a565b6106aa610d35565b50565b610685838383604051806020016040528060008152506107f3565b603280549060006106d88361199b565b90915550506032546105808282610d95565b60006104b682610a81565b6000600080516020611b528339815191526001600160a01b038316610730576040516322718ad960e21b8152600060048201526024016105aa565b6001600160a01b039092166000908152600390920160205250604090205490565b600080516020611b7283398151915261076981610c0a565b6106aa610dfa565b6000918252600080516020611b92833981519152602090815260408084206001600160a01b0393909316845291905290205460ff1690565b7f80bb2b638cc20bc4d0a60d66940f3ab4a00c1d7b313497ca82fb0b4ab00793018054606091600080516020611b52833981519152916104dc90611961565b610580338383610e43565b6107fe848484610584565b61060e84848484610ef4565b7ff0c57e16840df040f15088dc2f81fe391c3923bec73e23a9662efc9c229c6a008054600160401b810460ff16159067ffffffffffffffff166000811580156108505750825b905060008267ffffffffffffffff16600114801561086d5750303b155b90508115801561087b575080155b156108995760405163f92ee8a960e01b815260040160405180910390fd5b845467ffffffffffffffff1916600117855583156108c357845460ff60401b1916600160401b1785555b61090c6040518060400160405280600981526020016812db9a59da1d13919560ba1b8152506040518060400160405280600681526020016512d39251d21560d21b81525061101d565b6109158661102f565b831561095b57845460ff60401b19168555604051600181527fc7f505b2f371ae2175ee4913f4499e1f2633a7b5936321eed1cdaeb6115181d29060200160405180910390a15b505050505050565b606061096e82610a81565b50600061098660408051602081019091526000815290565b905060008151116109a657604051806020016040528060008152506109d1565b806109b08461114a565b6040516020016109c19291906119c2565b6040516020818303038152906040525b9392505050565b6109e182610614565b6109ea81610c0a565b61060e8383610cb9565b6001600160a01b0391821660009081527f80bb2b638cc20bc4d0a60d66940f3ab4a00c1d7b313497ca82fb0b4ab00793056020908152604080832093909416825291909152205460ff1690565b60006001600160e01b031982166380ac58cd60e01b1480610a7257506001600160e01b03198216635b5e139f60e01b145b806104b657506104b6826111dd565b600080610a8d83611212565b90506001600160a01b0381166104b657604051637e27328960e01b8152600481018490526024016105aa565b60009081527f80bb2b638cc20bc4d0a60d66940f3ab4a00c1d7b313497ca82fb0b4ab007930460205260409020546001600160a01b031690565b610685838383600161124c565b6000600080516020611b5283398151915281610b1b85611212565b90506001600160a01b03841615610b3757610b37818587611362565b6001600160a01b03811615610b7757610b5460008660008061124c565b6001600160a01b0381166000908152600383016020526040902080546000190190555b6001600160a01b03861615610ba8576001600160a01b03861660009081526003830160205260409020805460010190555b600085815260028301602052604080822080546001600160a01b0319166001600160a01b038a811691821790925591518893918516917fddf252ad1be2c89b69c2b068fc378daa952ba7f163c4a11628f55a4df523b3ef91a495945050505050565b6106aa81336113c6565b6000600080516020611b92833981519152610c2f8484610771565b610caf576000848152602082815260408083206001600160a01b03871684529091529020805460ff19166001179055610c653390565b6001600160a01b0316836001600160a01b0316857f2f8788117e7eff1d82e926ec794901d17c78024a50270940304540a733656f0d60405160405180910390a460019150506104b6565b60009150506104b6565b6000600080516020611b92833981519152610cd48484610771565b15610caf576000848152602082815260408083206001600160a01b0387168085529252808320805460ff1916905551339287917ff6391f5c32d9c69d2a47ea670b442974b53935d1edc7fd64eb21e047a839171b9190a460019150506104b6565b610d3d6113ff565b600080516020611bb2833981519152805460ff191681557f5db9ee0a495bf2e6ff9c91a7834c1ba4fdd244a5e8aa4e537bd38aeae4b073aa335b6040516001600160a01b03909116815260200160405180910390a150565b6001600160a01b038216610dbf57604051633250574960e11b8152600060048201526024016105aa565b6000610dcd83836000610b00565b90506001600160a01b03811615610685576040516339e3563760e11b8152600060048201526024016105aa565b610e02611431565b600080516020611bb2833981519152805460ff191660011781557f62e78cea01bee320cd4e420270b5ea74000d11b0c9f74754ebdbfc544b05a25833610d77565b600080516020611b528339815191526001600160a01b038316610e8457604051630b61174360e31b81526001600160a01b03841660048201526024016105aa565b6001600160a01b038481166000818152600584016020908152604080832094881680845294825291829020805460ff191687151590811790915591519182527f17307eab39ab6107e8899845ad3d59bd9653f200f220920489ca2b5937696c31910160405180910390a350505050565b6001600160a01b0383163b1561060e57604051630a85bd0160e11b81526001600160a01b0384169063150b7a0290610f369033908890879087906004016119f1565b6020604051808303816000875af1925050508015610f71575060408051601f3d908101601f19168201909252610f6e91810190611a2e565b60015b610fda573d808015610f9f576040519150601f19603f3d011682016040523d82523d6000602084013e610fa4565b606091505b508051600003610fd257604051633250574960e11b81526001600160a01b03851660048201526024016105aa565b805181602001fd5b6001600160e01b03198116630a85bd0160e11b1461101657604051633250574960e11b81526001600160a01b03851660048201526024016105aa565b5050505050565b611025611462565b61058082826114ab565b611037611462565b61103f6114dc565b6110476114ec565b61104f6114f4565b61105a600082610c14565b50611073600080516020611b7283398151915282610c14565b5061109e7fb19546dff01e856fb3f010c267a7b1c60363cf8a4664e21cc89c26224620214e82610c14565b506110c97f9f2df0fed2c77648de5860a4cc508cd0818c85b8b8a1ab4ceeef8d981c8956a682610c14565b506110f47fa49807205ce4d355092ef5a8a18f56e8913cf4a201fbe287825b095693c2177582610c14565b5061111f7f35af5b5a3fb4c88a8cb5e26e8a68a53cc8f6cafcc4000a1db1ae5753e25a168e82610c14565b506105807ffac2ca1f36146faa39c5bcc0b960d021ea7055ceba427adb32a1937cb8af07e882610c14565b6060600061115783611504565b600101905060008167ffffffffffffffff81111561117757611177611845565b6040519080825280601f01601f1916602001820160405280156111a1576020820181803683370190505b5090508181016020015b600019016f181899199a1a9b1b9c1cb0b131b232b360811b600a86061a8153600a85049450846111ab57509392505050565b60006001600160e01b03198216637965db0b60e01b14806104b657506301ffc9a760e01b6001600160e01b03198316146104b6565b60009081527f80bb2b638cc20bc4d0a60d66940f3ab4a00c1d7b313497ca82fb0b4ab007930260205260409020546001600160a01b031690565b600080516020611b52833981519152818061126f57506001600160a01b03831615155b1561133157600061127f85610a81565b90506001600160a01b038416158015906112ab5750836001600160a01b0316816001600160a01b031614155b80156112be57506112bc81856109f4565b155b156112e75760405163a9fbf51f60e01b81526001600160a01b03851660048201526024016105aa565b821561132f5784866001600160a01b0316826001600160a01b03167f8c5be1e5ebec7d5bd14f71427d1e84f3dd0314c0f7b2291e5b200ac8c7c3b92560405160405180910390a45b505b600093845260040160205250506040902080546001600160a01b0319166001600160a01b0392909216919091179055565b61136d8383836115dc565b610685576001600160a01b03831661139b57604051637e27328960e01b8152600481018290526024016105aa565b60405163177e802f60e01b81526001600160a01b0383166004820152602481018290526044016105aa565b6113d08282610771565b6105805760405163e2517d3f60e01b81526001600160a01b0382166004820152602481018390526044016105aa565b600080516020611bb28339815191525460ff1661142f57604051638dfc202b60e01b815260040160405180910390fd5b565b600080516020611bb28339815191525460ff161561142f5760405163d93c066560e01b815260040160405180910390fd5b7ff0c57e16840df040f15088dc2f81fe391c3923bec73e23a9662efc9c229c6a0054600160401b900460ff1661142f57604051631afcd79f60e31b815260040160405180910390fd5b6114b3611462565b600080516020611b52833981519152806114cd8482611a91565b506001810161060e8382611a91565b6114e4611462565b61142f611642565b61142f611462565b6114fc611462565b61142f611663565b60008072184f03e93ff9f4daa797ed6e38ed64bf6a1f0160401b83106115435772184f03e93ff9f4daa797ed6e38ed64bf6a1f0160401b830492506040015b6d04ee2d6d415b85acef8100000000831061156f576d04ee2d6d415b85acef8100000000830492506020015b662386f26fc10000831061158d57662386f26fc10000830492506010015b6305f5e10083106115a5576305f5e100830492506008015b61271083106115b957612710830492506004015b606483106115cb576064830492506002015b600a83106104b65760010192915050565b60006001600160a01b0383161580159061163a5750826001600160a01b0316846001600160a01b03161480611616575061161684846109f4565b8061163a5750826001600160a01b031661162f83610ab9565b6001600160a01b0316145b949350505050565b61164a611462565b600080516020611bb2833981519152805460ff19169055565b61166b611462565b60017f9b779b17422d0df92223018b32b4d1fa46e071723d6817e2486d003becc55f0055565b6001600160e01b0319811681146106aa57600080fd5b6000602082840312156116b957600080fd5b81356109d181611691565b60005b838110156116df5781810151838201526020016116c7565b50506000910152565b600081518084526117008160208601602086016116c4565b601f01601f19169290920160200192915050565b6020815260006109d160208301846116e8565b60006020828403121561173957600080fd5b5035919050565b80356001600160a01b038116811461175757600080fd5b919050565b6000806040838503121561176f57600080fd5b61177883611740565b946020939093013593505050565b60008060006060848603121561179b57600080fd5b6117a484611740565b92506117b260208501611740565b9150604084013590509250925092565b600080604083850312156117d557600080fd5b823591506117e560208401611740565b90509250929050565b60006020828403121561180057600080fd5b6109d182611740565b6000806040838503121561181c57600080fd5b61182583611740565b91506020830135801515811461183a57600080fd5b809150509250929050565b634e487b7160e01b600052604160045260246000fd5b6000806000806080858703121561187157600080fd5b61187a85611740565b935061188860208601611740565b925060408501359150606085013567ffffffffffffffff808211156118ac57600080fd5b818701915087601f8301126118c057600080fd5b8135818111156118d2576118d2611845565b604051601f8201601f19908116603f011681019083821181831017156118fa576118fa611845565b816040528281528a602084870101111561191357600080fd5b82602086016020830137600060208483010152809550505050505092959194509250565b6000806040838503121561194a57600080fd5b61195383611740565b91506117e560208401611740565b600181811c9082168061197557607f821691505b60208210810361199557634e487b7160e01b600052602260045260246000fd5b50919050565b6000600182016119bb57634e487b7160e01b600052601160045260246000fd5b5060010190565b600083516119d48184602088016116c4565b8351908301906119e88183602088016116c4565b01949350505050565b6001600160a01b0385811682528416602082015260408101839052608060608201819052600090611a24908301846116e8565b9695505050505050565b600060208284031215611a4057600080fd5b81516109d181611691565b601f82111561068557600081815260208120601f850160051c81016020861015611a725750805b601f850160051c820191505b8181101561095b57828155600101611a7e565b815167ffffffffffffffff811115611aab57611aab611845565b611abf81611ab98454611961565b84611a4b565b602080601f831160018114611af45760008415611adc5750858301515b600019600386901b1c1916600185901b17855561095b565b600085815260208120601f198616915b82811015611b2357888601518255948401946001909101908401611b04565b5085821015611b415787850151600019600388901b60f8161c191681555b5050505050600190811b0190555056fe80bb2b638cc20bc4d0a60d66940f3ab4a00c1d7b313497ca82fb0b4ab007930065d7a28e3265b37a6474929f336521b332c1681b933f6cb9f3376673440d862a02dd7bc7dec4dceedda775e58dd541e08a116c6c53815c0bd028192f7b626800cd5ed15c6e187e77e9aee88184c21f4f2182ab5827cb3b7e07fbedcd63f03300a264697066735822122050e157c88a886e71692eadb46c9fe748440811cab245d4ab203039b62fce951b64736f6c63430008140033",
  "linkReferences": {},
  "deployedLinkReferences": {}
}