{
  "_format": "hh-sol-artifact-1",
  "contractName": "Battle",
  "sourceName": "contracts/Battle.sol",
  "abi": [
    {
      "inputs": [],
      "name": "AccessControlBadConfirmation",
      "type": "error"
    },
    {
      "inputs": [
        {
          "internalType": "address",
          "name": "account",
          "type": "address"
        },
        {
          "internalType": "bytes32",
          "name": "neededRole",
          "type": "bytes32"
        }
      ],
      "name": "AccessControlUnauthorizedAccount",
      "type": "error"
    },
    {
      "inputs": [],
      "name": "BattleAlreadyComplete",
      "type": "error"
    },
    {
      "inputs": [],
      "name": "BattleAlreadyStarted",
      "type": "error"
    },
    {
      "inputs": [],
      "name": "EnforcedPause",
      "type": "error"
    },
    {
      "inputs": [],
      "name": "ExpectedPause",
      "type": "error"
    },
    {
      "inputs": [],
      "name": "InvalidInitialization",
      "type": "error"
    },
    {
      "inputs": [],
      "name": "InvalidValues",
      "type": "error"
    },
    {
      "inputs": [],
      "name": "NotInitializing",
      "type": "error"
    },
    {
      "inputs": [],
      "name": "ReentrancyGuardReentrantCall",
      "type": "error"
    },
    {
      "anonymous": false,
      "inputs": [
        {
          "indexed": false,
          "internalType": "uint256",
          "name": "battleId",
          "type": "uint256"
        }
      ],
      "name": "BattleStarted",
      "type": "event"
    },
    {
      "anonymous": false,
      "inputs": [
        {
          "indexed": false,
          "internalType": "uint64",
          "name": "version",
          "type": "uint64"
        }
      ],
      "name": "Initialized",
      "type": "event"
    },
    {
      "anonymous": false,
      "inputs": [
        {
          "indexed": false,
          "internalType": "address",
          "name": "account",
          "type": "address"
        }
      ],
      "name": "Paused",
      "type": "event"
    },
    {
      "anonymous": false,
      "inputs": [
        {
          "indexed": true,
          "internalType": "bytes32",
          "name": "role",
          "type": "bytes32"
        },
        {
          "indexed": true,
          "internalType": "bytes32",
          "name": "previousAdminRole",
          "type": "bytes32"
        },
        {
          "indexed": true,
          "internalType": "bytes32",
          "name": "newAdminRole",
          "type": "bytes32"
        }
      ],
      "name": "RoleAdminChanged",
      "type": "event"
    },
    {
      "anonymous": false,
      "inputs": [
        {
          "indexed": true,
          "internalType": "bytes32",
          "name": "role",
          "type": "bytes32"
        },
        {
          "indexed": true,
          "internalType": "address",
          "name": "account",
          "type": "address"
        },
        {
          "indexed": true,
          "internalType": "address",
          "name": "sender",
          "type": "address"
        }
      ],
      "name": "RoleGranted",
      "type": "event"
    },
    {
      "anonymous": false,
      "inputs": [
        {
          "indexed": true,
          "internalType": "bytes32",
          "name": "role",
          "type": "bytes32"
        },
        {
          "indexed": true,
          "internalType": "address",
          "name": "account",
          "type": "address"
        },
        {
          "indexed": true,
          "internalType": "address",
          "name": "sender",
          "type": "address"
        }
      ],
      "name": "RoleRevoked",
      "type": "event"
    },
    {
      "anonymous": false,
      "inputs": [
        {
          "indexed": false,
          "internalType": "address",
          "name": "account",
          "type": "address"
        }
      ],
      "name": "Unpaused",
      "type": "event"
    },
    {
      "inputs": [],
      "name": "ADMIN_ROLE",
      "outputs": [
        {
          "internalType": "bytes32",
          "name": "",
          "type": "bytes32"
        }
      ],
      "stateMutability": "view",
      "type": "function"
    },
    {
      "inputs": [],
      "name": "DEFAULT_ADMIN_ROLE",
      "outputs": [
        {
          "internalType": "bytes32",
          "name": "",
          "type": "bytes32"
        }
      ],
      "stateMutability": "view",
      "type": "function"
    },
    {
      "inputs": [],
      "name": "MINTER_ROLE",
      "outputs": [
        {
          "internalType": "bytes32",
          "name": "",
          "type": "bytes32"
        }
      ],
      "stateMutability": "view",
      "type": "function"
    },
    {
      "inputs": [],
      "name": "OWNER_ROLE",
      "outputs": [
        {
          "internalType": "bytes32",
          "name": "",
          "type": "bytes32"
        }
      ],
      "stateMutability": "view",
      "type": "function"
    },
    {
      "inputs": [],
      "name": "PAUSER_ROLE",
      "outputs": [
        {
          "internalType": "bytes32",
          "name": "",
          "type": "bytes32"
        }
      ],
      "stateMutability": "view",
      "type": "function"
    },
    {
      "inputs": [],
      "name": "UTILITY_ROLE",
      "outputs": [
        {
          "internalType": "bytes32",
          "name": "",
          "type": "bytes32"
        }
      ],
      "stateMutability": "view",
      "type": "function"
    },
    {
      "inputs": [],
      "name": "VRF_CALLBACK_DELIVERY_ROLE",
      "outputs": [
        {
          "internalType": "bytes32",
          "name": "",
          "type": "bytes32"
        }
      ],
      "stateMutability": "view",
      "type": "function"
    },
    {
      "inputs": [],
      "name": "battleIdCounter",
      "outputs": [
        {
          "internalType": "uint256",
          "name": "",
          "type": "uint256"
        }
      ],
      "stateMutability": "view",
      "type": "function"
    },
    {
      "inputs": [
        {
          "internalType": "uint256",
          "name": "",
          "type": "uint256"
        }
      ],
      "name": "battleIdToBattleInstance",
      "outputs": [
        {
          "internalType": "uint256",
          "name": "battleId",
          "type": "uint256"
        },
        {
          "internalType": "address",
          "name": "playerOne",
          "type": "address"
        },
        {
          "internalType": "address",
          "name": "playerTwo",
          "type": "address"
        },
        {
          "internalType": "uint256",
          "name": "playerOneTokenId",
          "type": "uint256"
        },
        {
          "internalType": "uint256",
          "name": "playerTwoTokenId",
          "type": "uint256"
        },
        {
          "internalType": "enum BattleState",
          "name": "state",
          "type": "uint8"
        }
      ],
      "stateMutability": "view",
      "type": "function"
    },
    {
      "inputs": [
        {
          "internalType": "uint256",
          "name": "battleId",
          "type": "uint256"
        },
        {
          "internalType": "uint256",
          "name": "randomNumber",
          "type": "uint256"
        }
      ],
      "name": "decideWinner",
      "outputs": [],
      "stateMutability": "nonpayable",
      "type": "function"
    },
    {
      "inputs": [
        {
          "internalType": "uint256",
          "name": "battleId",
          "type": "uint256"
        }
      ],
      "name": "getBattleData",
      "outputs": [
        {
          "components": [
            {
              "internalType": "uint256",
              "name": "battleId",
              "type": "uint256"
            },
            {
              "internalType": "address",
              "name": "playerOne",
              "type": "address"
            },
            {
              "internalType": "address",
              "name": "playerTwo",
              "type": "address"
            },
            {
              "internalType": "uint256",
              "name": "playerOneTokenId",
              "type": "uint256"
            },
            {
              "internalType": "uint256",
              "name": "playerTwoTokenId",
              "type": "uint256"
            },
            {
              "internalType": "enum BattleState",
              "name": "state",
              "type": "uint8"
            }
          ],
          "internalType": "struct BattleInstance",
          "name": "",
          "type": "tuple"
        }
      ],
      "stateMutability": "view",
      "type": "function"
    },
    {
      "inputs": [
        {
          "internalType": "bytes32",
          "name": "role",
          "type": "bytes32"
        }
      ],
      "name": "getRoleAdmin",
      "outputs": [
        {
          "internalType": "bytes32",
          "name": "",
          "type": "bytes32"
        }
      ],
      "stateMutability": "view",
      "type": "function"
    },
    {
      "inputs": [
        {
          "internalType": "bytes32",
          "name": "role",
          "type": "bytes32"
        },
        {
          "internalType": "address",
          "name": "account",
          "type": "address"
        }
      ],
      "name": "grantRole",
      "outputs": [],
      "stateMutability": "nonpayable",
      "type": "function"
    },
    {
      "inputs": [
        {
          "internalType": "bytes32",
          "name": "role",
          "type": "bytes32"
        },
        {
          "internalType": "address",
          "name": "account",
          "type": "address"
        }
      ],
      "name": "hasRole",
      "outputs": [
        {
          "internalType": "bool",
          "name": "",
          "type": "bool"
        }
      ],
      "stateMutability": "view",
      "type": "function"
    },
    {
      "inputs": [
        {
          "internalType": "address",
          "name": "initialOwner",
          "type": "address"
        }
      ],
      "name": "initialize",
      "outputs": [],
      "stateMutability": "nonpayable",
      "type": "function"
    },
    {
      "inputs": [
        {
          "internalType": "uint256",
          "name": "playerTwoTokenId",
          "type": "uint256"
        },
        {
          "internalType": "uint256",
          "name": "battleId",
          "type": "uint256"
        }
      ],
      "name": "joinBattle",
      "outputs": [],
      "stateMutability": "nonpayable",
      "type": "function"
    },
    {
      "inputs": [],
      "name": "knightNFT",
      "outputs": [
        {
          "internalType": "contract IERC721",
          "name": "",
          "type": "address"
        }
      ],
      "stateMutability": "view",
      "type": "function"
    },
    {
      "inputs": [],
      "name": "pause",
      "outputs": [],
      "stateMutability": "nonpayable",
      "type": "function"
    },
    {
      "inputs": [],
      "name": "paused",
      "outputs": [
        {
          "internalType": "bool",
          "name": "",
          "type": "bool"
        }
      ],
      "stateMutability": "view",
      "type": "function"
    },
    {
      "inputs": [
        {
          "internalType": "bytes32",
          "name": "role",
          "type": "bytes32"
        },
        {
          "internalType": "address",
          "name": "callerConfirmation",
          "type": "address"
        }
      ],
      "name": "renounceRole",
      "outputs": [],
      "stateMutability": "nonpayable",
      "type": "function"
    },
    {
      "inputs": [
        {
          "internalType": "bytes32",
          "name": "role",
          "type": "bytes32"
        },
        {
          "internalType": "address",
          "name": "account",
          "type": "address"
        }
      ],
      "name": "revokeRole",
      "outputs": [],
      "stateMutability": "nonpayable",
      "type": "function"
    },
    {
      "inputs": [],
      "name": "samuraiNFT",
      "outputs": [
        {
          "internalType": "contract IERC721",
          "name": "",
          "type": "address"
        }
      ],
      "stateMutability": "view",
      "type": "function"
    },
    {
      "inputs": [
        {
          "internalType": "address",
          "name": "_knightNFT",
          "type": "address"
        },
        {
          "internalType": "address",
          "name": "_samuraiNFT",
          "type": "address"
        }
      ],
      "name": "setNFTContracts",
      "outputs": [],
      "stateMutability": "nonpayable",
      "type": "function"
    },
    {
      "inputs": [
        {
          "internalType": "uint256",
          "name": "playerTokenId",
          "type": "uint256"
        }
      ],
      "name": "startBattle",
      "outputs": [],
      "stateMutability": "nonpayable",
      "type": "function"
    },
    {
      "inputs": [
        {
          "internalType": "bytes4",
          "name": "interfaceId",
          "type": "bytes4"
        }
      ],
      "name": "supportsInterface",
      "outputs": [
        {
          "internalType": "bool",
          "name": "",
          "type": "bool"
        }
      ],
      "stateMutability": "view",
      "type": "function"
    },
    {
      "inputs": [],
      "name": "unpause",
      "outputs": [],
      "stateMutability": "nonpayable",
      "type": "function"
    }
  ],
  "bytecode": "0x608060405234801561001057600080fd5b506115c0806100206000396000f3fe608060405234801561001057600080fd5b506004361061018e5760003560e01c806391d14854116100de578063d539139311610097578063e58378bb11610071578063e58378bb14610405578063e63ab1e91461042c578063f9d6d6bf14610441578063fe3edcd11461045457600080fd5b8063d5391393146103b8578063d547741f146103df578063e44dba4f146103f257600080fd5b806391d148541461033d578063a217fddf14610350578063c4d66de814610358578063c7bb3fda1461036b578063c97dd0f91461037e578063d4abd2f41461039157600080fd5b80635c975abb1161014b5780638456cb59116101255780638456cb59146102db5780638c5e6dc1146102e35780638e6807f8146103035780638f2967591461031657600080fd5b80635c975abb1461023757806375b238fc1461024f57806382bea4ce1461027657600080fd5b806301ffc9a714610193578063248a9ca3146101bb5780632f2ff15d146101dc578063331353ad146101f157806336568abe1461021c5780633f4ba83a1461022f575b600080fd5b6101a66101a13660046112d4565b61045d565b60405190151581526020015b60405180910390f35b6101ce6101c9366004611305565b610494565b6040519081526020016101b2565b6101ef6101ea366004611333565b6104b6565b005b603354610204906001600160a01b031681565b6040516001600160a01b0390911681526020016101b2565b6101ef61022a366004611333565b6104d8565b6101ef610510565b60008051602061156b8339815191525460ff166101a6565b6101ce7fa49807205ce4d355092ef5a8a18f56e8913cf4a201fbe287825b095693c2177581565b6102c9610284366004611305565b60326020526000908152604090208054600182015460028301546003840154600485015460059095015493946001600160a01b03938416949290931692909160ff1686565b6040516101b29695949392919061139b565b6101ef610533565b6102f66102f1366004611305565b610553565b6040516101b291906113df565b6101ef610311366004611305565b61061e565b6101ce7f35af5b5a3fb4c88a8cb5e26e8a68a53cc8f6cafcc4000a1db1ae5753e25a168e81565b6101a661034b366004611333565b610834565b6101ce600081565b6101ef610366366004611433565b61086c565b6101ef610379366004611450565b61097c565b603454610204906001600160a01b031681565b6101ce7ffac2ca1f36146faa39c5bcc0b960d021ea7055ceba427adb32a1937cb8af07e881565b6101ce7f9f2df0fed2c77648de5860a4cc508cd0818c85b8b8a1ab4ceeef8d981c8956a681565b6101ef6103ed366004611333565b6109d5565b6101ef61040036600461147e565b6109f1565b6101ce7fb19546dff01e856fb3f010c267a7b1c60363cf8a4664e21cc89c26224620214e81565b6101ce60008051602061152b83398151915281565b6101ef61044f36600461147e565b610be2565b6101ce60355481565b60006001600160e01b03198216637965db0b60e01b148061048e57506301ffc9a760e01b6001600160e01b03198316145b92915050565b600090815260008051602061154b833981519152602052604090206001015490565b6104bf82610494565b6104c881610e7e565b6104d28383610e88565b50505050565b6001600160a01b03811633146105015760405163334bd91960e11b815260040160405180910390fd5b61050b8282610f34565b505050565b60008051602061152b83398151915261052881610e7e565b610530610fb0565b50565b60008051602061152b83398151915261054b81610e7e565b610530611010565b6105896040805160c08101825260008082526020820181905291810182905260608101829052608081018290529060a082015290565b600082815260326020908152604091829020825160c0810184528154815260018201546001600160a01b0390811693820193909352600282015490921692820192909252600382015460608201526004808301546080830152600583015491929160a084019160ff9091169081111561060457610604611363565b600481111561061557610615611363565b90525092915050565b6033546040516331a9108f60e11b8152600481018390526001600160a01b0390911690636352211e90602401602060405180830381865afa158015610667573d6000803e3d6000fd5b505050506040513d601f19601f8201168201806040525081019061068b91906114a0565b6001600160a01b0316336001600160a01b0316146106fc5760405162461bcd60e51b8152602060048201526024808201527f4e6f7420746865206f776e6572206f6620746865204b6e696768744e4654207460448201526337b5b2b760e11b60648201526084015b60405180910390fd5b6035805490600061070c836114bd565b90915550506035546040805160c08101825282815233602080830191825260008385018181526060850188815260808601838152600160a088018181528a865260329096529790932086518155945185880180546001600160a01b03199081166001600160a01b03938416179091559251600287018054909416911617909155516003840155516004808401919091559051600583018054949586959293919260ff19169184908111156107c2576107c2611363565b0217905550506033546040516323b872dd60e01b81526001600160a01b0390911691506323b872dd906107fd903390309088906004016114e4565b600060405180830381600087803b15801561081757600080fd5b505af115801561082b573d6000803e3d6000fd5b50505050505050565b600091825260008051602061154b833981519152602090815260408084206001600160a01b0393909316845291905290205460ff1690565b7ff0c57e16840df040f15088dc2f81fe391c3923bec73e23a9662efc9c229c6a008054600160401b810460ff16159067ffffffffffffffff166000811580156108b25750825b905060008267ffffffffffffffff1660011480156108cf5750303b155b9050811580156108dd575080155b156108fb5760405163f92ee8a960e01b815260040160405180910390fd5b845467ffffffffffffffff19166001178555831561092557845460ff60401b1916600160401b1785555b61092e86611059565b831561097457845460ff60401b19168555604051600181527fc7f505b2f371ae2175ee4913f4499e1f2633a7b5936321eed1cdaeb6115181d29060200160405180910390a15b505050505050565b7fb19546dff01e856fb3f010c267a7b1c60363cf8a4664e21cc89c26224620214e6109a681610e7e565b50603380546001600160a01b039384166001600160a01b03199182161790915560348054929093169116179055565b6109de82610494565b6109e781610e7e565b6104d28383610f34565b6034546040516331a9108f60e11b8152600481018490526001600160a01b0390911690636352211e90602401602060405180830381865afa158015610a3a573d6000803e3d6000fd5b505050506040513d601f19601f82011682018060405250810190610a5e91906114a0565b6001600160a01b0316336001600160a01b031614610acc5760405162461bcd60e51b815260206004820152602560248201527f4e6f7420746865206f776e6572206f66207468652053616d757261694e4654206044820152643a37b5b2b760d91b60648201526084016106f3565b60008181526032602052604090206001600582015460ff166004811115610af557610af5611363565b14610b1357604051630c43cddf60e41b815260040160405180910390fd5b600280820180546001600160a01b031916331790556004820184905560058201805460ff191660018302179055506034546040516323b872dd60e01b81526001600160a01b03909116906323b872dd90610b75903390309088906004016114e4565b600060405180830381600087803b158015610b8f57600080fd5b505af1158015610ba3573d6000803e3d6000fd5b505082546040519081527f9a02cac07671e80638a2bd9ec5e274cc02bd2d1d52552751695dc8ad623441909250602001905060405180910390a1505050565b7ffac2ca1f36146faa39c5bcc0b960d021ea7055ceba427adb32a1937cb8af07e8610c0c81610e7e565b60008381526032602052604090206002600582015460ff166004811115610c3557610c35611363565b14610c825760405162461bcd60e51b815260206004820152601e60248201527f426174746c65206973206e6f7420696e2073746174652050454e44494e47000060448201526064016106f3565b610c8d600284611508565b600003610d895760058101805460ff191660039081179091556033546001830154918301546040516323b872dd60e01b81526001600160a01b03928316936323b872dd93610ce59330939190921691906004016114e4565b600060405180830381600087803b158015610cff57600080fd5b505af1158015610d13573d6000803e3d6000fd5b505060345460018401546004808601546040516323b872dd60e01b81526001600160a01b0394851696506323b872dd9550610d529430941692016114e4565b600060405180830381600087803b158015610d6c57600080fd5b505af1158015610d80573d6000803e3d6000fd5b505050506104d2565b60058101805460ff191660049081179091556034546002830154828401546040516323b872dd60e01b81526001600160a01b03938416946323b872dd94610dd79430949116929091016114e4565b600060405180830381600087803b158015610df157600080fd5b505af1158015610e05573d6000803e3d6000fd5b5050603354600284015460038501546040516323b872dd60e01b81526001600160a01b0393841695506323b872dd9450610e469330931691906004016114e4565b600060405180830381600087803b158015610e6057600080fd5b505af1158015610e74573d6000803e3d6000fd5b5050505050505050565b6105308133611178565b600060008051602061154b833981519152610ea38484610834565b610f23576000848152602082815260408083206001600160a01b03871684529091529020805460ff19166001179055610ed93390565b6001600160a01b0316836001600160a01b0316857f2f8788117e7eff1d82e926ec794901d17c78024a50270940304540a733656f0d60405160405180910390a4600191505061048e565b600091505061048e565b5092915050565b600060008051602061154b833981519152610f4f8484610834565b15610f23576000848152602082815260408083206001600160a01b0387168085529252808320805460ff1916905551339287917ff6391f5c32d9c69d2a47ea670b442974b53935d1edc7fd64eb21e047a839171b9190a4600191505061048e565b610fb86111b1565b60008051602061156b833981519152805460ff191681557f5db9ee0a495bf2e6ff9c91a7834c1ba4fdd244a5e8aa4e537bd38aeae4b073aa335b6040516001600160a01b03909116815260200160405180910390a150565b6110186111e3565b60008051602061156b833981519152805460ff191660011781557f62e78cea01bee320cd4e420270b5ea74000d11b0c9f74754ebdbfc544b05a25833610ff2565b611061611214565b61106961125d565b61107161126d565b611079611275565b611084600082610e88565b5061109d60008051602061152b83398151915282610e88565b506110c87fb19546dff01e856fb3f010c267a7b1c60363cf8a4664e21cc89c26224620214e82610e88565b506110f37f9f2df0fed2c77648de5860a4cc508cd0818c85b8b8a1ab4ceeef8d981c8956a682610e88565b5061111e7fa49807205ce4d355092ef5a8a18f56e8913cf4a201fbe287825b095693c2177582610e88565b506111497f35af5b5a3fb4c88a8cb5e26e8a68a53cc8f6cafcc4000a1db1ae5753e25a168e82610e88565b506111747ffac2ca1f36146faa39c5bcc0b960d021ea7055ceba427adb32a1937cb8af07e882610e88565b5050565b6111828282610834565b6111745760405163e2517d3f60e01b81526001600160a01b0382166004820152602481018390526044016106f3565b60008051602061156b8339815191525460ff166111e157604051638dfc202b60e01b815260040160405180910390fd5b565b60008051602061156b8339815191525460ff16156111e15760405163d93c066560e01b815260040160405180910390fd5b7ff0c57e16840df040f15088dc2f81fe391c3923bec73e23a9662efc9c229c6a0054600160401b900460ff166111e157604051631afcd79f60e31b815260040160405180910390fd5b611265611214565b6111e1611285565b6111e1611214565b61127d611214565b6111e16112a6565b61128d611214565b60008051602061156b833981519152805460ff19169055565b6112ae611214565b60017f9b779b17422d0df92223018b32b4d1fa46e071723d6817e2486d003becc55f0055565b6000602082840312156112e657600080fd5b81356001600160e01b0319811681146112fe57600080fd5b9392505050565b60006020828403121561131757600080fd5b5035919050565b6001600160a01b038116811461053057600080fd5b6000806040838503121561134657600080fd5b8235915060208301356113588161131e565b809150509250929050565b634e487b7160e01b600052602160045260246000fd5b6005811061139757634e487b7160e01b600052602160045260246000fd5b9052565b8681526001600160a01b03868116602083015285166040820152606081018490526080810183905260c081016113d460a0830184611379565b979650505050505050565b600060c08201905082518252602083015160018060a01b0380821660208501528060408601511660408501525050606083015160608301526080830151608083015260a0830151610f2d60a0840182611379565b60006020828403121561144557600080fd5b81356112fe8161131e565b6000806040838503121561146357600080fd5b823561146e8161131e565b915060208301356113588161131e565b6000806040838503121561149157600080fd5b50508035926020909101359150565b6000602082840312156114b257600080fd5b81516112fe8161131e565b6000600182016114dd57634e487b7160e01b600052601160045260246000fd5b5060010190565b6001600160a01b039384168152919092166020820152604081019190915260600190565b60008261152557634e487b7160e01b600052601260045260246000fd5b50069056fe65d7a28e3265b37a6474929f336521b332c1681b933f6cb9f3376673440d862a02dd7bc7dec4dceedda775e58dd541e08a116c6c53815c0bd028192f7b626800cd5ed15c6e187e77e9aee88184c21f4f2182ab5827cb3b7e07fbedcd63f03300a2646970667358221220f46b1fee8de5f5021db55beb0eefdc8bcd9f408302b97fa3d4008278f009858864736f6c63430008140033",
  "linkReferences": {},
  "deployedLinkReferences": {}
}