{"contracts/Battle.sol":{"Battle":{"abi":[{"inputs":[],"name":"AccessControlBadConfirmation","type":"error"},{"inputs":[{"internalType":"address","name":"account","type":"address"},{"internalType":"bytes32","name":"neededRole","type":"bytes32"}],"name":"AccessControlUnauthorizedAccount","type":"error"},{"inputs":[],"name":"BattleAlreadyComplete","type":"error"},{"inputs":[],"name":"BattleAlreadyStarted","type":"error"},{"inputs":[],"name":"EnforcedPause","type":"error"},{"inputs":[],"name":"ExpectedPause","type":"error"},{"inputs":[],"name":"InvalidInitialization","type":"error"},{"inputs":[],"name":"InvalidValues","type":"error"},{"inputs":[],"name":"NotInitializing","type":"error"},{"inputs":[],"name":"ReentrancyGuardReentrantCall","type":"error"},{"anonymous":false,"inputs":[{"indexed":false,"internalType":"uint256","name":"battleId","type":"uint256"}],"name":"BattleStarted","type":"event"},{"anonymous":false,"inputs":[{"indexed":false,"internalType":"uint64","name":"version","type":"uint64"}],"name":"Initialized","type":"event"},{"anonymous":false,"inputs":[{"indexed":false,"internalType":"address","name":"account","type":"address"}],"name":"Paused","type":"event"},{"anonymous":false,"inputs":[{"indexed":true,"internalType":"bytes32","name":"role","type":"bytes32"},{"indexed":true,"internalType":"bytes32","name":"previousAdminRole","type":"bytes32"},{"indexed":true,"internalType":"bytes32","name":"newAdminRole","type":"bytes32"}],"name":"RoleAdminChanged","type":"event"},{"anonymous":false,"inputs":[{"indexed":true,"internalType":"bytes32","name":"role","type":"bytes32"},{"indexed":true,"internalType":"address","name":"account","type":"address"},{"indexed":true,"internalType":"address","name":"sender","type":"address"}],"name":"RoleGranted","type":"event"},{"anonymous":false,"inputs":[{"indexed":true,"internalType":"bytes32","name":"role","type":"bytes32"},{"indexed":true,"internalType":"address","name":"account","type":"address"},{"indexed":true,"internalType":"address","name":"sender","type":"address"}],"name":"RoleRevoked","type":"event"},{"anonymous":false,"inputs":[{"indexed":false,"internalType":"address","name":"account","type":"address"}],"name":"Unpaused","type":"event"},{"inputs":[],"name":"ADMIN_ROLE","outputs":[{"internalType":"bytes32","name":"","type":"bytes32"}],"stateMutability":"view","type":"function"},{"inputs":[],"name":"DEFAULT_ADMIN_ROLE","outputs":[{"internalType":"bytes32","name":"","type":"bytes32"}],"stateMutability":"view","type":"function"},{"inputs":[],"name":"MINTER_ROLE","outputs":[{"internalType":"bytes32","name":"","type":"bytes32"}],"stateMutability":"view","type":"function"},{"inputs":[],"name":"OWNER_ROLE","outputs":[{"internalType":"bytes32","name":"","type":"bytes32"}],"stateMutability":"view","type":"function"},{"inputs":[],"name":"PAUSER_ROLE","outputs":[{"internalType":"bytes32","name":"","type":"bytes32"}],"stateMutability":"view","type":"function"},{"inputs":[],"name":"UTILITY_ROLE","outputs":[{"internalType":"bytes32","name":"","type":"bytes32"}],"stateMutability":"view","type":"function"},{"inputs":[],"name":"VRF_CALLBACK_DELIVERY_ROLE","outputs":[{"internalType":"bytes32","name":"","type":"bytes32"}],"stateMutability":"view","type":"function"},{"inputs":[],"name":"battleIdCounter","outputs":[{"internalType":"uint256","name":"","type":"uint256"}],"stateMutability":"view","type":"function"},{"inputs":[{"internalType":"uint256","name":"","type":"uint256"}],"name":"battleIdToBattleInstance","outputs":[{"internalType":"uint256","name":"battleId","type":"uint256"},{"internalType":"address","name":"playerOne","type":"address"},{"internalType":"address","name":"playerTwo","type":"address"},{"internalType":"uint256","name":"playerOneTokenId","type":"uint256"},{"internalType":"uint256","name":"playerTwoTokenId","type":"uint256"},{"internalType":"enum BattleState","name":"state","type":"uint8"}],"stateMutability":"view","type":"function"},{"inputs":[{"internalType":"uint256","name":"battleId","type":"uint256"},{"internalType":"uint256","name":"randomNumber","type":"uint256"}],"name":"decideWinner","outputs":[],"stateMutability":"nonpayable","type":"function"},{"inputs":[{"internalType":"uint256","name":"battleId","type":"uint256"}],"name":"getBattleData","outputs":[{"components":[{"internalType":"uint256","name":"battleId","type":"uint256"},{"internalType":"address","name":"playerOne","type":"address"},{"internalType":"address","name":"playerTwo","type":"address"},{"internalType":"uint256","name":"playerOneTokenId","type":"uint256"},{"internalType":"uint256","name":"playerTwoTokenId","type":"uint256"},{"internalType":"enum BattleState","name":"state","type":"uint8"}],"internalType":"struct BattleInstance","name":"","type":"tuple"}],"stateMutability":"view","type":"function"},{"inputs":[{"internalType":"bytes32","name":"role","type":"bytes32"}],"name":"getRoleAdmin","outputs":[{"internalType":"bytes32","name":"","type":"bytes32"}],"stateMutability":"view","type":"function"},{"inputs":[{"internalType":"bytes32","name":"role","type":"bytes32"},{"internalType":"address","name":"account","type":"address"}],"name":"grantRole","outputs":[],"stateMutability":"nonpayable","type":"function"},{"inputs":[{"internalType":"bytes32","name":"role","type":"bytes32"},{"internalType":"address","name":"account","type":"address"}],"name":"hasRole","outputs":[{"internalType":"bool","name":"","type":"bool"}],"stateMutability":"view","type":"function"},{"inputs":[{"internalType":"address","name":"initialOwner","type":"address"}],"name":"initialize","outputs":[],"stateMutability":"nonpayable","type":"function"},{"inputs":[{"internalType":"uint256","name":"playerTwoTokenId","type":"uint256"}],"name":"joinBattle","outputs":[],"stateMutability":"nonpayable","type":"function"},{"inputs":[],"name":"knightNFT","outputs":[{"internalType":"contract IERC721","name":"","type":"address"}],"stateMutability":"view","type":"function"},{"inputs":[],"name":"pause","outputs":[],"stateMutability":"nonpayable","type":"function"},{"inputs":[],"name":"paused","outputs":[{"internalType":"bool","name":"","type":"bool"}],"stateMutability":"view","type":"function"},{"inputs":[{"internalType":"bytes32","name":"role","type":"bytes32"},{"internalType":"address","name":"callerConfirmation","type":"address"}],"name":"renounceRole","outputs":[],"stateMutability":"nonpayable","type":"function"},{"inputs":[{"internalType":"bytes32","name":"role","type":"bytes32"},{"internalType":"address","name":"account","type":"address"}],"name":"revokeRole","outputs":[],"stateMutability":"nonpayable","type":"function"},{"inputs":[],"name":"samuraiNFT","outputs":[{"internalType":"contract IERC721","name":"","type":"address"}],"stateMutability":"view","type":"function"},{"inputs":[{"internalType":"address","name":"_knightNFT","type":"address"},{"internalType":"address","name":"_samuraiNFT","type":"address"}],"name":"setNFTContracts","outputs":[],"stateMutability":"nonpayable","type":"function"},{"inputs":[{"internalType":"uint256","name":"playerTokenId","type":"uint256"}],"name":"startBattle","outputs":[],"stateMutability":"nonpayable","type":"function"},{"inputs":[{"internalType":"bytes4","name":"interfaceId","type":"bytes4"}],"name":"supportsInterface","outputs":[{"internalType":"bool","name":"","type":"bool"}],"stateMutability":"view","type":"function"},{"inputs":[],"name":"unpause","outputs":[],"stateMutability":"nonpayable","type":"function"}],"devdoc":{"errors":{"AccessControlBadConfirmation()":[{"details":"The caller of a function is not the expected one. NOTE: Don't confuse with {AccessControlUnauthorizedAccount}."}],"AccessControlUnauthorizedAccount(address,bytes32)":[{"details":"The `account` is missing a role."}],"EnforcedPause()":[{"details":"The operation failed because the contract is paused."}],"ExpectedPause()":[{"details":"The operation failed because the contract is not paused."}],"InvalidInitialization()":[{"details":"The contract is already initialized."}],"NotInitializing()":[{"details":"The contract is not initializing."}],"ReentrancyGuardReentrantCall()":[{"details":"Unauthorized reentrant call."}]},"events":{"Initialized(uint64)":{"details":"Triggered when the contract has been initialized or reinitialized."},"Paused(address)":{"details":"Emitted when the pause is triggered by `account`."},"RoleAdminChanged(bytes32,bytes32,bytes32)":{"details":"Emitted when `newAdminRole` is set as ``role``'s admin role, replacing `previousAdminRole` `DEFAULT_ADMIN_ROLE` is the starting admin for all roles, despite {RoleAdminChanged} not being emitted signaling this."},"RoleGranted(bytes32,address,address)":{"details":"Emitted when `account` is granted `role`. `sender` is the account that originated the contract call, an admin role bearer except when using {AccessControl-_setupRole}."},"RoleRevoked(bytes32,address,address)":{"details":"Emitted when `account` is revoked `role`. `sender` is the account that originated the contract call:   - if using `revokeRole`, it is the admin role bearer   - if using `renounceRole`, it is the role bearer (i.e. `account`)"},"Unpaused(address)":{"details":"Emitted when the pause is lifted by `account`."}},"kind":"dev","methods":{"getRoleAdmin(bytes32)":{"details":"Returns the admin role that controls `role`. See {grantRole} and {revokeRole}. To change a role's admin, use {_setRoleAdmin}."},"grantRole(bytes32,address)":{"details":"Grants `role` to `account`. If `account` had not been already granted `role`, emits a {RoleGranted} event. Requirements: - the caller must have ``role``'s admin role. May emit a {RoleGranted} event."},"hasRole(bytes32,address)":{"details":"Returns `true` if `account` has been granted `role`."},"paused()":{"details":"Returns true if the contract is paused, and false otherwise."},"renounceRole(bytes32,address)":{"details":"Revokes `role` from the calling account. Roles are often managed via {grantRole} and {revokeRole}: this function's purpose is to provide a mechanism for accounts to lose their privileges if they are compromised (such as when a trusted device is misplaced). If the calling account had been revoked `role`, emits a {RoleRevoked} event. Requirements: - the caller must be `callerConfirmation`. May emit a {RoleRevoked} event."},"revokeRole(bytes32,address)":{"details":"Revokes `role` from `account`. If `account` had been granted `role`, emits a {RoleRevoked} event. Requirements: - the caller must have ``role``'s admin role. May emit a {RoleRevoked} event."},"setNFTContracts(address,address)":{"details":"Set the address of the KnightNFT contract and the SamuraiNFT contract"},"supportsInterface(bytes4)":{"details":"See {IERC165-supportsInterface}."}},"version":1},"evm":{"bytecode":{"linkReferences":{},"object":"608060405234801561001057600080fd5b506115c2806100206000396000f3fe608060405234801561001057600080fd5b506004361061018e5760003560e01c80638f296759116100de578063d4abd2f411610097578063e58378bb11610071578063e58378bb14610405578063e63ab1e91461042c578063f9d6d6bf14610441578063fe3edcd11461045457600080fd5b8063d4abd2f4146103a4578063d5391393146103cb578063d547741f146103f257600080fd5b80638f2967591461032957806391d1485414610350578063a217fddf14610363578063c4d66de81461036b578063c7bb3fda1461037e578063c97dd0f91461039157600080fd5b80634a042f0d1161014b57806382bea4ce1161012557806382bea4ce146102895780638456cb59146102ee5780638c5e6dc1146102f65780638e6807f81461031657600080fd5b80634a042f0d146102375780635c975abb1461024a57806375b238fc1461026257600080fd5b806301ffc9a714610193578063248a9ca3146101bb5780632f2ff15d146101dc578063331353ad146101f157806336568abe1461021c5780633f4ba83a1461022f575b600080fd5b6101a66101a13660046112d6565b61045d565b60405190151581526020015b60405180910390f35b6101ce6101c9366004611307565b610494565b6040519081526020016101b2565b6101ef6101ea366004611335565b6104b6565b005b603354610204906001600160a01b031681565b6040516001600160a01b0390911681526020016101b2565b6101ef61022a366004611335565b6104d8565b6101ef610510565b6101ef610245366004611307565b610533565b60008051602061156d8339815191525460ff166101a6565b6101ce7fa49807205ce4d355092ef5a8a18f56e8913cf4a201fbe287825b095693c2177581565b6102dc610297366004611307565b60326020526000908152604090208054600182015460028301546003840154600485015460059095015493946001600160a01b03938416949290931692909160ff1686565b6040516101b29695949392919061139d565b6101ef61072b565b610309610304366004611307565b61074b565b6040516101b291906113e1565b6101ef610324366004611307565b610816565b6101ce7f35af5b5a3fb4c88a8cb5e26e8a68a53cc8f6cafcc4000a1db1ae5753e25a168e81565b6101a661035e366004611335565b610a27565b6101ce600081565b6101ef610379366004611435565b610a5f565b6101ef61038c366004611452565b610b6f565b603454610204906001600160a01b031681565b6101ce7ffac2ca1f36146faa39c5bcc0b960d021ea7055ceba427adb32a1937cb8af07e881565b6101ce7f9f2df0fed2c77648de5860a4cc508cd0818c85b8b8a1ab4ceeef8d981c8956a681565b6101ef610400366004611335565b610bc8565b6101ce7fb19546dff01e856fb3f010c267a7b1c60363cf8a4664e21cc89c26224620214e81565b6101ce60008051602061152d83398151915281565b6101ef61044f366004611480565b610be4565b6101ce60355481565b60006001600160e01b03198216637965db0b60e01b148061048e57506301ffc9a760e01b6001600160e01b03198316145b92915050565b600090815260008051602061154d833981519152602052604090206001015490565b6104bf82610494565b6104c881610e80565b6104d28383610e8a565b50505050565b6001600160a01b03811633146105015760405163334bd91960e11b815260040160405180910390fd5b61050b8282610f36565b505050565b60008051602061152d83398151915261052881610e80565b610530610fb2565b50565b6034546040516331a9108f60e11b8152600481018390526001600160a01b0390911690636352211e90602401602060405180830381865afa15801561057c573d6000803e3d6000fd5b505050506040513d601f19601f820116820180604052508101906105a091906114a2565b6001600160a01b0316336001600160a01b0316146106135760405162461bcd60e51b815260206004820152602560248201527f4e6f7420746865206f776e6572206f66207468652053616d757261694e4654206044820152643a37b5b2b760d91b60648201526084015b60405180910390fd5b60355460009081526032602052604090206001600582015460ff16600481111561063f5761063f611365565b1461065d57604051630c43cddf60e41b815260040160405180910390fd5b600280820180546001600160a01b031916331790556004820183905560058201805460ff191660018302179055506034546040516323b872dd60e01b81526001600160a01b03909116906323b872dd906106bf903390309087906004016114bf565b600060405180830381600087803b1580156106d957600080fd5b505af11580156106ed573d6000803e3d6000fd5b505082546040519081527f9a02cac07671e80638a2bd9ec5e274cc02bd2d1d52552751695dc8ad623441909250602001905060405180910390a15050565b60008051602061152d83398151915261074381610e80565b610530611012565b6107816040805160c08101825260008082526020820181905291810182905260608101829052608081018290529060a082015290565b600082815260326020908152604091829020825160c0810184528154815260018201546001600160a01b0390811693820193909352600282015490921692820192909252600382015460608201526004808301546080830152600583015491929160a084019160ff909116908111156107fc576107fc611365565b600481111561080d5761080d611365565b90525092915050565b6033546040516331a9108f60e11b8152600481018390526001600160a01b0390911690636352211e90602401602060405180830381865afa15801561085f573d6000803e3d6000fd5b505050506040513d601f19601f8201168201806040525081019061088391906114a2565b6001600160a01b0316336001600160a01b0316146108ef5760405162461bcd60e51b8152602060048201526024808201527f4e6f7420746865206f776e6572206f6620746865204b6e696768744e4654207460448201526337b5b2b760e11b606482015260840161060a565b603580549060006108ff836114e3565b90915550506035546040805160c08101825282815233602080830191825260008385018181526060850188815260808601838152600160a088018181528a865260329096529790932086518155945185880180546001600160a01b03199081166001600160a01b03938416179091559251600287018054909416911617909155516003840155516004808401919091559051600583018054949586959293919260ff19169184908111156109b5576109b5611365565b0217905550506033546040516323b872dd60e01b81526001600160a01b0390911691506323b872dd906109f0903390309088906004016114bf565b600060405180830381600087803b158015610a0a57600080fd5b505af1158015610a1e573d6000803e3d6000fd5b50505050505050565b600091825260008051602061154d833981519152602090815260408084206001600160a01b0393909316845291905290205460ff1690565b7ff0c57e16840df040f15088dc2f81fe391c3923bec73e23a9662efc9c229c6a008054600160401b810460ff16159067ffffffffffffffff16600081158015610aa55750825b905060008267ffffffffffffffff166001148015610ac25750303b155b905081158015610ad0575080155b15610aee5760405163f92ee8a960e01b815260040160405180910390fd5b845467ffffffffffffffff191660011785558315610b1857845460ff60401b1916600160401b1785555b610b218661105b565b8315610b6757845460ff60401b19168555604051600181527fc7f505b2f371ae2175ee4913f4499e1f2633a7b5936321eed1cdaeb6115181d29060200160405180910390a15b505050505050565b7fb19546dff01e856fb3f010c267a7b1c60363cf8a4664e21cc89c26224620214e610b9981610e80565b50603380546001600160a01b039384166001600160a01b03199182161790915560348054929093169116179055565b610bd182610494565b610bda81610e80565b6104d28383610f36565b7ffac2ca1f36146faa39c5bcc0b960d021ea7055ceba427adb32a1937cb8af07e8610c0e81610e80565b60008381526032602052604090206002600582015460ff166004811115610c3757610c37611365565b14610c845760405162461bcd60e51b815260206004820152601e60248201527f426174746c65206973206e6f7420696e2073746174652050454e44494e470000604482015260640161060a565b610c8f60028461150a565b600003610d8b5760058101805460ff191660039081179091556033546001830154918301546040516323b872dd60e01b81526001600160a01b03928316936323b872dd93610ce79330939190921691906004016114bf565b600060405180830381600087803b158015610d0157600080fd5b505af1158015610d15573d6000803e3d6000fd5b505060345460018401546004808601546040516323b872dd60e01b81526001600160a01b0394851696506323b872dd9550610d549430941692016114bf565b600060405180830381600087803b158015610d6e57600080fd5b505af1158015610d82573d6000803e3d6000fd5b505050506104d2565b60058101805460ff191660049081179091556034546002830154828401546040516323b872dd60e01b81526001600160a01b03938416946323b872dd94610dd99430949116929091016114bf565b600060405180830381600087803b158015610df357600080fd5b505af1158015610e07573d6000803e3d6000fd5b5050603354600284015460038501546040516323b872dd60e01b81526001600160a01b0393841695506323b872dd9450610e489330931691906004016114bf565b600060405180830381600087803b158015610e6257600080fd5b505af1158015610e76573d6000803e3d6000fd5b5050505050505050565b610530813361117a565b600060008051602061154d833981519152610ea58484610a27565b610f25576000848152602082815260408083206001600160a01b03871684529091529020805460ff19166001179055610edb3390565b6001600160a01b0316836001600160a01b0316857f2f8788117e7eff1d82e926ec794901d17c78024a50270940304540a733656f0d60405160405180910390a4600191505061048e565b600091505061048e565b5092915050565b600060008051602061154d833981519152610f518484610a27565b15610f25576000848152602082815260408083206001600160a01b0387168085529252808320805460ff1916905551339287917ff6391f5c32d9c69d2a47ea670b442974b53935d1edc7fd64eb21e047a839171b9190a4600191505061048e565b610fba6111b3565b60008051602061156d833981519152805460ff191681557f5db9ee0a495bf2e6ff9c91a7834c1ba4fdd244a5e8aa4e537bd38aeae4b073aa335b6040516001600160a01b03909116815260200160405180910390a150565b61101a6111e5565b60008051602061156d833981519152805460ff191660011781557f62e78cea01bee320cd4e420270b5ea74000d11b0c9f74754ebdbfc544b05a25833610ff4565b611063611216565b61106b61125f565b61107361126f565b61107b611277565b611086600082610e8a565b5061109f60008051602061152d83398151915282610e8a565b506110ca7fb19546dff01e856fb3f010c267a7b1c60363cf8a4664e21cc89c26224620214e82610e8a565b506110f57f9f2df0fed2c77648de5860a4cc508cd0818c85b8b8a1ab4ceeef8d981c8956a682610e8a565b506111207fa49807205ce4d355092ef5a8a18f56e8913cf4a201fbe287825b095693c2177582610e8a565b5061114b7f35af5b5a3fb4c88a8cb5e26e8a68a53cc8f6cafcc4000a1db1ae5753e25a168e82610e8a565b506111767ffac2ca1f36146faa39c5bcc0b960d021ea7055ceba427adb32a1937cb8af07e882610e8a565b5050565b6111848282610a27565b6111765760405163e2517d3f60e01b81526001600160a01b03821660048201526024810183905260440161060a565b60008051602061156d8339815191525460ff166111e357604051638dfc202b60e01b815260040160405180910390fd5b565b60008051602061156d8339815191525460ff16156111e35760405163d93c066560e01b815260040160405180910390fd5b7ff0c57e16840df040f15088dc2f81fe391c3923bec73e23a9662efc9c229c6a0054600160401b900460ff166111e357604051631afcd79f60e31b815260040160405180910390fd5b611267611216565b6111e3611287565b6111e3611216565b61127f611216565b6111e36112a8565b61128f611216565b60008051602061156d833981519152805460ff19169055565b6112b0611216565b60017f9b779b17422d0df92223018b32b4d1fa46e071723d6817e2486d003becc55f0055565b6000602082840312156112e857600080fd5b81356001600160e01b03198116811461130057600080fd5b9392505050565b60006020828403121561131957600080fd5b5035919050565b6001600160a01b038116811461053057600080fd5b6000806040838503121561134857600080fd5b82359150602083013561135a81611320565b809150509250929050565b634e487b7160e01b600052602160045260246000fd5b6005811061139957634e487b7160e01b600052602160045260246000fd5b9052565b8681526001600160a01b03868116602083015285166040820152606081018490526080810183905260c081016113d660a083018461137b565b979650505050505050565b600060c08201905082518252602083015160018060a01b0380821660208501528060408601511660408501525050606083015160608301526080830151608083015260a0830151610f2f60a084018261137b565b60006020828403121561144757600080fd5b813561130081611320565b6000806040838503121561146557600080fd5b823561147081611320565b9150602083013561135a81611320565b6000806040838503121561149357600080fd5b50508035926020909101359150565b6000602082840312156114b457600080fd5b815161130081611320565b6001600160a01b039384168152919092166020820152604081019190915260600190565b60006001820161150357634e487b7160e01b600052601160045260246000fd5b5060010190565b60008261152757634e487b7160e01b600052601260045260246000fd5b50069056fe65d7a28e3265b37a6474929f336521b332c1681b933f6cb9f3376673440d862a02dd7bc7dec4dceedda775e58dd541e08a116c6c53815c0bd028192f7b626800cd5ed15c6e187e77e9aee88184c21f4f2182ab5827cb3b7e07fbedcd63f03300a264697066735822122009a62e9eb0724bb567ae13a6c45bb3f0357fe5de4a7ff7367127caba05da1cc564736f6c63430008140033","opcodes":"PUSH1 0x80 PUSH1 0x40 MSTORE CALLVALUE DUP1 ISZERO PUSH2 0x10 JUMPI PUSH1 0x0 DUP1 REVERT JUMPDEST POP PUSH2 0x15C2 DUP1 PUSH2 0x20 PUSH1 0x0 CODECOPY PUSH1 0x0 RETURN INVALID PUSH1 0x80 PUSH1 0x40 MSTORE CALLVALUE DUP1 ISZERO PUSH2 0x10 JUMPI PUSH1 0x0 DUP1 REVERT JUMPDEST POP PUSH1 0x4 CALLDATASIZE LT PUSH2 0x18E JUMPI PUSH1 0x0 CALLDATALOAD PUSH1 0xE0 SHR DUP1 PUSH4 0x8F296759 GT PUSH2 0xDE JUMPI DUP1 PUSH4 0xD4ABD2F4 GT PUSH2 0x97 JUMPI DUP1 PUSH4 0xE58378BB GT PUSH2 0x71 JUMPI DUP1 PUSH4 0xE58378BB EQ PUSH2 0x405 JUMPI DUP1 PUSH4 0xE63AB1E9 EQ PUSH2 0x42C JUMPI DUP1 PUSH4 0xF9D6D6BF EQ PUSH2 0x441 JUMPI DUP1 PUSH4 0xFE3EDCD1 EQ PUSH2 0x454 JUMPI PUSH1 0x0 DUP1 REVERT JUMPDEST DUP1 PUSH4 0xD4ABD2F4 EQ PUSH2 0x3A4 JUMPI DUP1 PUSH4 0xD5391393 EQ PUSH2 0x3CB JUMPI DUP1 PUSH4 0xD547741F EQ PUSH2 0x3F2 JUMPI PUSH1 0x0 DUP1 REVERT JUMPDEST DUP1 PUSH4 0x8F296759 EQ PUSH2 0x329 JUMPI DUP1 PUSH4 0x91D14854 EQ PUSH2 0x350 JUMPI DUP1 PUSH4 0xA217FDDF EQ PUSH2 0x363 JUMPI DUP1 PUSH4 0xC4D66DE8 EQ PUSH2 0x36B JUMPI DUP1 PUSH4 0xC7BB3FDA EQ PUSH2 0x37E JUMPI DUP1 PUSH4 0xC97DD0F9 EQ PUSH2 0x391 JUMPI PUSH1 0x0 DUP1 REVERT JUMPDEST DUP1 PUSH4 0x4A042F0D GT PUSH2 0x14B JUMPI DUP1 PUSH4 0x82BEA4CE GT PUSH2 0x125 JUMPI DUP1 PUSH4 0x82BEA4CE EQ PUSH2 0x289 JUMPI DUP1 PUSH4 0x8456CB59 EQ PUSH2 0x2EE JUMPI DUP1 PUSH4 0x8C5E6DC1 EQ PUSH2 0x2F6 JUMPI DUP1 PUSH4 0x8E6807F8 EQ PUSH2 0x316 JUMPI PUSH1 0x0 DUP1 REVERT JUMPDEST DUP1 PUSH4 0x4A042F0D EQ PUSH2 0x237 JUMPI DUP1 PUSH4 0x5C975ABB EQ PUSH2 0x24A JUMPI DUP1 PUSH4 0x75B238FC EQ PUSH2 0x262 JUMPI PUSH1 0x0 DUP1 REVERT JUMPDEST DUP1 PUSH4 0x1FFC9A7 EQ PUSH2 0x193 JUMPI DUP1 PUSH4 0x248A9CA3 EQ PUSH2 0x1BB JUMPI DUP1 PUSH4 0x2F2FF15D EQ PUSH2 0x1DC JUMPI DUP1 PUSH4 0x331353AD EQ PUSH2 0x1F1 JUMPI DUP1 PUSH4 0x36568ABE EQ PUSH2 0x21C JUMPI DUP1 PUSH4 0x3F4BA83A EQ PUSH2 0x22F JUMPI JUMPDEST PUSH1 0x0 DUP1 REVERT JUMPDEST PUSH2 0x1A6 PUSH2 0x1A1 CALLDATASIZE PUSH1 0x4 PUSH2 0x12D6 JUMP JUMPDEST PUSH2 0x45D JUMP JUMPDEST PUSH1 0x40 MLOAD SWAP1 ISZERO ISZERO DUP2 MSTORE PUSH1 0x20 ADD JUMPDEST PUSH1 0x40 MLOAD DUP1 SWAP2 SUB SWAP1 RETURN JUMPDEST PUSH2 0x1CE PUSH2 0x1C9 CALLDATASIZE PUSH1 0x4 PUSH2 0x1307 JUMP JUMPDEST PUSH2 0x494 JUMP JUMPDEST PUSH1 0x40 MLOAD SWAP1 DUP2 MSTORE PUSH1 0x20 ADD PUSH2 0x1B2 JUMP JUMPDEST PUSH2 0x1EF PUSH2 0x1EA CALLDATASIZE PUSH1 0x4 PUSH2 0x1335 JUMP JUMPDEST PUSH2 0x4B6 JUMP JUMPDEST STOP JUMPDEST PUSH1 0x33 SLOAD PUSH2 0x204 SWAP1 PUSH1 0x1 PUSH1 0x1 PUSH1 0xA0 SHL SUB AND DUP2 JUMP JUMPDEST PUSH1 0x40 MLOAD PUSH1 0x1 PUSH1 0x1 PUSH1 0xA0 SHL SUB SWAP1 SWAP2 AND DUP2 MSTORE PUSH1 0x20 ADD PUSH2 0x1B2 JUMP JUMPDEST PUSH2 0x1EF PUSH2 0x22A CALLDATASIZE PUSH1 0x4 PUSH2 0x1335 JUMP JUMPDEST PUSH2 0x4D8 JUMP JUMPDEST PUSH2 0x1EF PUSH2 0x510 JUMP JUMPDEST PUSH2 0x1EF PUSH2 0x245 CALLDATASIZE PUSH1 0x4 PUSH2 0x1307 JUMP JUMPDEST PUSH2 0x533 JUMP JUMPDEST PUSH1 0x0 DUP1 MLOAD PUSH1 0x20 PUSH2 0x156D DUP4 CODECOPY DUP2 MLOAD SWAP2 MSTORE SLOAD PUSH1 0xFF AND PUSH2 0x1A6 JUMP JUMPDEST PUSH2 0x1CE PUSH32 0xA49807205CE4D355092EF5A8A18F56E8913CF4A201FBE287825B095693C21775 DUP2 JUMP JUMPDEST PUSH2 0x2DC PUSH2 0x297 CALLDATASIZE PUSH1 0x4 PUSH2 0x1307 JUMP JUMPDEST PUSH1 0x32 PUSH1 0x20 MSTORE PUSH1 0x0 SWAP1 DUP2 MSTORE PUSH1 0x40 SWAP1 KECCAK256 DUP1 SLOAD PUSH1 0x1 DUP3 ADD SLOAD PUSH1 0x2 DUP4 ADD SLOAD PUSH1 0x3 DUP5 ADD SLOAD PUSH1 0x4 DUP6 ADD SLOAD PUSH1 0x5 SWAP1 SWAP6 ADD SLOAD SWAP4 SWAP5 PUSH1 0x1 PUSH1 0x1 PUSH1 0xA0 SHL SUB SWAP4 DUP5 AND SWAP5 SWAP3 SWAP1 SWAP4 AND SWAP3 SWAP1 SWAP2 PUSH1 0xFF AND DUP7 JUMP JUMPDEST PUSH1 0x40 MLOAD PUSH2 0x1B2 SWAP7 SWAP6 SWAP5 SWAP4 SWAP3 SWAP2 SWAP1 PUSH2 0x139D JUMP JUMPDEST PUSH2 0x1EF PUSH2 0x72B JUMP JUMPDEST PUSH2 0x309 PUSH2 0x304 CALLDATASIZE PUSH1 0x4 PUSH2 0x1307 JUMP JUMPDEST PUSH2 0x74B JUMP JUMPDEST PUSH1 0x40 MLOAD PUSH2 0x1B2 SWAP2 SWAP1 PUSH2 0x13E1 JUMP JUMPDEST PUSH2 0x1EF PUSH2 0x324 CALLDATASIZE PUSH1 0x4 PUSH2 0x1307 JUMP JUMPDEST PUSH2 0x816 JUMP JUMPDEST PUSH2 0x1CE PUSH32 0x35AF5B5A3FB4C88A8CB5E26E8A68A53CC8F6CAFCC4000A1DB1AE5753E25A168E DUP2 JUMP JUMPDEST PUSH2 0x1A6 PUSH2 0x35E CALLDATASIZE PUSH1 0x4 PUSH2 0x1335 JUMP JUMPDEST PUSH2 0xA27 JUMP JUMPDEST PUSH2 0x1CE PUSH1 0x0 DUP2 JUMP JUMPDEST PUSH2 0x1EF PUSH2 0x379 CALLDATASIZE PUSH1 0x4 PUSH2 0x1435 JUMP JUMPDEST PUSH2 0xA5F JUMP JUMPDEST PUSH2 0x1EF PUSH2 0x38C CALLDATASIZE PUSH1 0x4 PUSH2 0x1452 JUMP JUMPDEST PUSH2 0xB6F JUMP JUMPDEST PUSH1 0x34 SLOAD PUSH2 0x204 SWAP1 PUSH1 0x1 PUSH1 0x1 PUSH1 0xA0 SHL SUB AND DUP2 JUMP JUMPDEST PUSH2 0x1CE PUSH32 0xFAC2CA1F36146FAA39C5BCC0B960D021EA7055CEBA427ADB32A1937CB8AF07E8 DUP2 JUMP JUMPDEST PUSH2 0x1CE PUSH32 0x9F2DF0FED2C77648DE5860A4CC508CD0818C85B8B8A1AB4CEEEF8D981C8956A6 DUP2 JUMP JUMPDEST PUSH2 0x1EF PUSH2 0x400 CALLDATASIZE PUSH1 0x4 PUSH2 0x1335 JUMP JUMPDEST PUSH2 0xBC8 JUMP JUMPDEST PUSH2 0x1CE PUSH32 0xB19546DFF01E856FB3F010C267A7B1C60363CF8A4664E21CC89C26224620214E DUP2 JUMP JUMPDEST PUSH2 0x1CE PUSH1 0x0 DUP1 MLOAD PUSH1 0x20 PUSH2 0x152D DUP4 CODECOPY DUP2 MLOAD SWAP2 MSTORE DUP2 JUMP JUMPDEST PUSH2 0x1EF PUSH2 0x44F CALLDATASIZE PUSH1 0x4 PUSH2 0x1480 JUMP JUMPDEST PUSH2 0xBE4 JUMP JUMPDEST PUSH2 0x1CE PUSH1 0x35 SLOAD DUP2 JUMP JUMPDEST PUSH1 0x0 PUSH1 0x1 PUSH1 0x1 PUSH1 0xE0 SHL SUB NOT DUP3 AND PUSH4 0x7965DB0B PUSH1 0xE0 SHL EQ DUP1 PUSH2 0x48E JUMPI POP PUSH4 0x1FFC9A7 PUSH1 0xE0 SHL PUSH1 0x1 PUSH1 0x1 PUSH1 0xE0 SHL SUB NOT DUP4 AND EQ JUMPDEST SWAP3 SWAP2 POP POP JUMP JUMPDEST PUSH1 0x0 SWAP1 DUP2 MSTORE PUSH1 0x0 DUP1 MLOAD PUSH1 0x20 PUSH2 0x154D DUP4 CODECOPY DUP2 MLOAD SWAP2 MSTORE PUSH1 0x20 MSTORE PUSH1 0x40 SWAP1 KECCAK256 PUSH1 0x1 ADD SLOAD SWAP1 JUMP JUMPDEST PUSH2 0x4BF DUP3 PUSH2 0x494 JUMP JUMPDEST PUSH2 0x4C8 DUP2 PUSH2 0xE80 JUMP JUMPDEST PUSH2 0x4D2 DUP4 DUP4 PUSH2 0xE8A JUMP JUMPDEST POP POP POP POP JUMP JUMPDEST PUSH1 0x1 PUSH1 0x1 PUSH1 0xA0 SHL SUB DUP2 AND CALLER EQ PUSH2 0x501 JUMPI PUSH1 0x40 MLOAD PUSH4 0x334BD919 PUSH1 0xE1 SHL DUP2 MSTORE PUSH1 0x4 ADD PUSH1 0x40 MLOAD DUP1 SWAP2 SUB SWAP1 REVERT JUMPDEST PUSH2 0x50B DUP3 DUP3 PUSH2 0xF36 JUMP JUMPDEST POP POP POP JUMP JUMPDEST PUSH1 0x0 DUP1 MLOAD PUSH1 0x20 PUSH2 0x152D DUP4 CODECOPY DUP2 MLOAD SWAP2 MSTORE PUSH2 0x528 DUP2 PUSH2 0xE80 JUMP JUMPDEST PUSH2 0x530 PUSH2 0xFB2 JUMP JUMPDEST POP JUMP JUMPDEST PUSH1 0x34 SLOAD PUSH1 0x40 MLOAD PUSH4 0x31A9108F PUSH1 0xE1 SHL DUP2 MSTORE PUSH1 0x4 DUP2 ADD DUP4 SWAP1 MSTORE PUSH1 0x1 PUSH1 0x1 PUSH1 0xA0 SHL SUB SWAP1 SWAP2 AND SWAP1 PUSH4 0x6352211E SWAP1 PUSH1 0x24 ADD PUSH1 0x20 PUSH1 0x40 MLOAD DUP1 DUP4 SUB DUP2 DUP7 GAS STATICCALL ISZERO DUP1 ISZERO PUSH2 0x57C JUMPI RETURNDATASIZE PUSH1 0x0 DUP1 RETURNDATACOPY RETURNDATASIZE PUSH1 0x0 REVERT JUMPDEST POP POP POP POP PUSH1 0x40 MLOAD RETURNDATASIZE PUSH1 0x1F NOT PUSH1 0x1F DUP3 ADD AND DUP3 ADD DUP1 PUSH1 0x40 MSTORE POP DUP2 ADD SWAP1 PUSH2 0x5A0 SWAP2 SWAP1 PUSH2 0x14A2 JUMP JUMPDEST PUSH1 0x1 PUSH1 0x1 PUSH1 0xA0 SHL SUB AND CALLER PUSH1 0x1 PUSH1 0x1 PUSH1 0xA0 SHL SUB AND EQ PUSH2 0x613 JUMPI PUSH1 0x40 MLOAD PUSH3 0x461BCD PUSH1 0xE5 SHL DUP2 MSTORE PUSH1 0x20 PUSH1 0x4 DUP3 ADD MSTORE PUSH1 0x25 PUSH1 0x24 DUP3 ADD MSTORE PUSH32 0x4E6F7420746865206F776E6572206F66207468652053616D757261694E465420 PUSH1 0x44 DUP3 ADD MSTORE PUSH5 0x3A37B5B2B7 PUSH1 0xD9 SHL PUSH1 0x64 DUP3 ADD MSTORE PUSH1 0x84 ADD JUMPDEST PUSH1 0x40 MLOAD DUP1 SWAP2 SUB SWAP1 REVERT JUMPDEST PUSH1 0x35 SLOAD PUSH1 0x0 SWAP1 DUP2 MSTORE PUSH1 0x32 PUSH1 0x20 MSTORE PUSH1 0x40 SWAP1 KECCAK256 PUSH1 0x1 PUSH1 0x5 DUP3 ADD SLOAD PUSH1 0xFF AND PUSH1 0x4 DUP2 GT ISZERO PUSH2 0x63F JUMPI PUSH2 0x63F PUSH2 0x1365 JUMP JUMPDEST EQ PUSH2 0x65D JUMPI PUSH1 0x40 MLOAD PUSH4 0xC43CDDF PUSH1 0xE4 SHL DUP2 MSTORE PUSH1 0x4 ADD PUSH1 0x40 MLOAD DUP1 SWAP2 SUB SWAP1 REVERT JUMPDEST PUSH1 0x2 DUP1 DUP3 ADD DUP1 SLOAD PUSH1 0x1 PUSH1 0x1 PUSH1 0xA0 SHL SUB NOT AND CALLER OR SWAP1 SSTORE PUSH1 0x4 DUP3 ADD DUP4 SWAP1 SSTORE PUSH1 0x5 DUP3 ADD DUP1 SLOAD PUSH1 0xFF NOT AND PUSH1 0x1 DUP4 MUL OR SWAP1 SSTORE POP PUSH1 0x34 SLOAD PUSH1 0x40 MLOAD PUSH4 0x23B872DD PUSH1 0xE0 SHL DUP2 MSTORE PUSH1 0x1 PUSH1 0x1 PUSH1 0xA0 SHL SUB SWAP1 SWAP2 AND SWAP1 PUSH4 0x23B872DD SWAP1 PUSH2 0x6BF SWAP1 CALLER SWAP1 ADDRESS SWAP1 DUP8 SWAP1 PUSH1 0x4 ADD PUSH2 0x14BF JUMP JUMPDEST PUSH1 0x0 PUSH1 0x40 MLOAD DUP1 DUP4 SUB DUP2 PUSH1 0x0 DUP8 DUP1 EXTCODESIZE ISZERO DUP1 ISZERO PUSH2 0x6D9 JUMPI PUSH1 0x0 DUP1 REVERT JUMPDEST POP GAS CALL ISZERO DUP1 ISZERO PUSH2 0x6ED JUMPI RETURNDATASIZE PUSH1 0x0 DUP1 RETURNDATACOPY RETURNDATASIZE PUSH1 0x0 REVERT JUMPDEST POP POP DUP3 SLOAD PUSH1 0x40 MLOAD SWAP1 DUP2 MSTORE PUSH32 0x9A02CAC07671E80638A2BD9EC5E274CC02BD2D1D52552751695DC8AD62344190 SWAP3 POP PUSH1 0x20 ADD SWAP1 POP PUSH1 0x40 MLOAD DUP1 SWAP2 SUB SWAP1 LOG1 POP POP JUMP JUMPDEST PUSH1 0x0 DUP1 MLOAD PUSH1 0x20 PUSH2 0x152D DUP4 CODECOPY DUP2 MLOAD SWAP2 MSTORE PUSH2 0x743 DUP2 PUSH2 0xE80 JUMP JUMPDEST PUSH2 0x530 PUSH2 0x1012 JUMP JUMPDEST PUSH2 0x781 PUSH1 0x40 DUP1 MLOAD PUSH1 0xC0 DUP2 ADD DUP3 MSTORE PUSH1 0x0 DUP1 DUP3 MSTORE PUSH1 0x20 DUP3 ADD DUP2 SWAP1 MSTORE SWAP2 DUP2 ADD DUP3 SWAP1 MSTORE PUSH1 0x60 DUP2 ADD DUP3 SWAP1 MSTORE PUSH1 0x80 DUP2 ADD DUP3 SWAP1 MSTORE SWAP1 PUSH1 0xA0 DUP3 ADD MSTORE SWAP1 JUMP JUMPDEST PUSH1 0x0 DUP3 DUP2 MSTORE PUSH1 0x32 PUSH1 0x20 SWAP1 DUP2 MSTORE PUSH1 0x40 SWAP2 DUP3 SWAP1 KECCAK256 DUP3 MLOAD PUSH1 0xC0 DUP2 ADD DUP5 MSTORE DUP2 SLOAD DUP2 MSTORE PUSH1 0x1 DUP3 ADD SLOAD PUSH1 0x1 PUSH1 0x1 PUSH1 0xA0 SHL SUB SWAP1 DUP2 AND SWAP4 DUP3 ADD SWAP4 SWAP1 SWAP4 MSTORE PUSH1 0x2 DUP3 ADD SLOAD SWAP1 SWAP3 AND SWAP3 DUP3 ADD SWAP3 SWAP1 SWAP3 MSTORE PUSH1 0x3 DUP3 ADD SLOAD PUSH1 0x60 DUP3 ADD MSTORE PUSH1 0x4 DUP1 DUP4 ADD SLOAD PUSH1 0x80 DUP4 ADD MSTORE PUSH1 0x5 DUP4 ADD SLOAD SWAP2 SWAP3 SWAP2 PUSH1 0xA0 DUP5 ADD SWAP2 PUSH1 0xFF SWAP1 SWAP2 AND SWAP1 DUP2 GT ISZERO PUSH2 0x7FC JUMPI PUSH2 0x7FC PUSH2 0x1365 JUMP JUMPDEST PUSH1 0x4 DUP2 GT ISZERO PUSH2 0x80D JUMPI PUSH2 0x80D PUSH2 0x1365 JUMP JUMPDEST SWAP1 MSTORE POP SWAP3 SWAP2 POP POP JUMP JUMPDEST PUSH1 0x33 SLOAD PUSH1 0x40 MLOAD PUSH4 0x31A9108F PUSH1 0xE1 SHL DUP2 MSTORE PUSH1 0x4 DUP2 ADD DUP4 SWAP1 MSTORE PUSH1 0x1 PUSH1 0x1 PUSH1 0xA0 SHL SUB SWAP1 SWAP2 AND SWAP1 PUSH4 0x6352211E SWAP1 PUSH1 0x24 ADD PUSH1 0x20 PUSH1 0x40 MLOAD DUP1 DUP4 SUB DUP2 DUP7 GAS STATICCALL ISZERO DUP1 ISZERO PUSH2 0x85F JUMPI RETURNDATASIZE PUSH1 0x0 DUP1 RETURNDATACOPY RETURNDATASIZE PUSH1 0x0 REVERT JUMPDEST POP POP POP POP PUSH1 0x40 MLOAD RETURNDATASIZE PUSH1 0x1F NOT PUSH1 0x1F DUP3 ADD AND DUP3 ADD DUP1 PUSH1 0x40 MSTORE POP DUP2 ADD SWAP1 PUSH2 0x883 SWAP2 SWAP1 PUSH2 0x14A2 JUMP JUMPDEST PUSH1 0x1 PUSH1 0x1 PUSH1 0xA0 SHL SUB AND CALLER PUSH1 0x1 PUSH1 0x1 PUSH1 0xA0 SHL SUB AND EQ PUSH2 0x8EF JUMPI PUSH1 0x40 MLOAD PUSH3 0x461BCD PUSH1 0xE5 SHL DUP2 MSTORE PUSH1 0x20 PUSH1 0x4 DUP3 ADD MSTORE PUSH1 0x24 DUP1 DUP3 ADD MSTORE PUSH32 0x4E6F7420746865206F776E6572206F6620746865204B6E696768744E46542074 PUSH1 0x44 DUP3 ADD MSTORE PUSH4 0x37B5B2B7 PUSH1 0xE1 SHL PUSH1 0x64 DUP3 ADD MSTORE PUSH1 0x84 ADD PUSH2 0x60A JUMP JUMPDEST PUSH1 0x35 DUP1 SLOAD SWAP1 PUSH1 0x0 PUSH2 0x8FF DUP4 PUSH2 0x14E3 JUMP JUMPDEST SWAP1 SWAP2 SSTORE POP POP PUSH1 0x35 SLOAD PUSH1 0x40 DUP1 MLOAD PUSH1 0xC0 DUP2 ADD DUP3 MSTORE DUP3 DUP2 MSTORE CALLER PUSH1 0x20 DUP1 DUP4 ADD SWAP2 DUP3 MSTORE PUSH1 0x0 DUP4 DUP6 ADD DUP2 DUP2 MSTORE PUSH1 0x60 DUP6 ADD DUP9 DUP2 MSTORE PUSH1 0x80 DUP7 ADD DUP4 DUP2 MSTORE PUSH1 0x1 PUSH1 0xA0 DUP9 ADD DUP2 DUP2 MSTORE DUP11 DUP7 MSTORE PUSH1 0x32 SWAP1 SWAP7 MSTORE SWAP8 SWAP1 SWAP4 KECCAK256 DUP7 MLOAD DUP2 SSTORE SWAP5 MLOAD DUP6 DUP9 ADD DUP1 SLOAD PUSH1 0x1 PUSH1 0x1 PUSH1 0xA0 SHL SUB NOT SWAP1 DUP2 AND PUSH1 0x1 PUSH1 0x1 PUSH1 0xA0 SHL SUB SWAP4 DUP5 AND OR SWAP1 SWAP2 SSTORE SWAP3 MLOAD PUSH1 0x2 DUP8 ADD DUP1 SLOAD SWAP1 SWAP5 AND SWAP2 AND OR SWAP1 SWAP2 SSTORE MLOAD PUSH1 0x3 DUP5 ADD SSTORE MLOAD PUSH1 0x4 DUP1 DUP5 ADD SWAP2 SWAP1 SWAP2 SSTORE SWAP1 MLOAD PUSH1 0x5 DUP4 ADD DUP1 SLOAD SWAP5 SWAP6 DUP7 SWAP6 SWAP3 SWAP4 SWAP2 SWAP3 PUSH1 0xFF NOT AND SWAP2 DUP5 SWAP1 DUP2 GT ISZERO PUSH2 0x9B5 JUMPI PUSH2 0x9B5 PUSH2 0x1365 JUMP JUMPDEST MUL OR SWAP1 SSTORE POP POP PUSH1 0x33 SLOAD PUSH1 0x40 MLOAD PUSH4 0x23B872DD PUSH1 0xE0 SHL DUP2 MSTORE PUSH1 0x1 PUSH1 0x1 PUSH1 0xA0 SHL SUB SWAP1 SWAP2 AND SWAP2 POP PUSH4 0x23B872DD SWAP1 PUSH2 0x9F0 SWAP1 CALLER SWAP1 ADDRESS SWAP1 DUP9 SWAP1 PUSH1 0x4 ADD PUSH2 0x14BF JUMP JUMPDEST PUSH1 0x0 PUSH1 0x40 MLOAD DUP1 DUP4 SUB DUP2 PUSH1 0x0 DUP8 DUP1 EXTCODESIZE ISZERO DUP1 ISZERO PUSH2 0xA0A JUMPI PUSH1 0x0 DUP1 REVERT JUMPDEST POP GAS CALL ISZERO DUP1 ISZERO PUSH2 0xA1E JUMPI RETURNDATASIZE PUSH1 0x0 DUP1 RETURNDATACOPY RETURNDATASIZE PUSH1 0x0 REVERT JUMPDEST POP POP POP POP POP POP POP JUMP JUMPDEST PUSH1 0x0 SWAP2 DUP3 MSTORE PUSH1 0x0 DUP1 MLOAD PUSH1 0x20 PUSH2 0x154D DUP4 CODECOPY DUP2 MLOAD SWAP2 MSTORE PUSH1 0x20 SWAP1 DUP2 MSTORE PUSH1 0x40 DUP1 DUP5 KECCAK256 PUSH1 0x1 PUSH1 0x1 PUSH1 0xA0 SHL SUB SWAP4 SWAP1 SWAP4 AND DUP5 MSTORE SWAP2 SWAP1 MSTORE SWAP1 KECCAK256 SLOAD PUSH1 0xFF AND SWAP1 JUMP JUMPDEST PUSH32 0xF0C57E16840DF040F15088DC2F81FE391C3923BEC73E23A9662EFC9C229C6A00 DUP1 SLOAD PUSH1 0x1 PUSH1 0x40 SHL DUP2 DIV PUSH1 0xFF AND ISZERO SWAP1 PUSH8 0xFFFFFFFFFFFFFFFF AND PUSH1 0x0 DUP2 ISZERO DUP1 ISZERO PUSH2 0xAA5 JUMPI POP DUP3 JUMPDEST SWAP1 POP PUSH1 0x0 DUP3 PUSH8 0xFFFFFFFFFFFFFFFF AND PUSH1 0x1 EQ DUP1 ISZERO PUSH2 0xAC2 JUMPI POP ADDRESS EXTCODESIZE ISZERO JUMPDEST SWAP1 POP DUP2 ISZERO DUP1 ISZERO PUSH2 0xAD0 JUMPI POP DUP1 ISZERO JUMPDEST ISZERO PUSH2 0xAEE JUMPI PUSH1 0x40 MLOAD PUSH4 0xF92EE8A9 PUSH1 0xE0 SHL DUP2 MSTORE PUSH1 0x4 ADD PUSH1 0x40 MLOAD DUP1 SWAP2 SUB SWAP1 REVERT JUMPDEST DUP5 SLOAD PUSH8 0xFFFFFFFFFFFFFFFF NOT AND PUSH1 0x1 OR DUP6 SSTORE DUP4 ISZERO PUSH2 0xB18 JUMPI DUP5 SLOAD PUSH1 0xFF PUSH1 0x40 SHL NOT AND PUSH1 0x1 PUSH1 0x40 SHL OR DUP6 SSTORE JUMPDEST PUSH2 0xB21 DUP7 PUSH2 0x105B JUMP JUMPDEST DUP4 ISZERO PUSH2 0xB67 JUMPI DUP5 SLOAD PUSH1 0xFF PUSH1 0x40 SHL NOT AND DUP6 SSTORE PUSH1 0x40 MLOAD PUSH1 0x1 DUP2 MSTORE PUSH32 0xC7F505B2F371AE2175EE4913F4499E1F2633A7B5936321EED1CDAEB6115181D2 SWAP1 PUSH1 0x20 ADD PUSH1 0x40 MLOAD DUP1 SWAP2 SUB SWAP1 LOG1 JUMPDEST POP POP POP POP POP POP JUMP JUMPDEST PUSH32 0xB19546DFF01E856FB3F010C267A7B1C60363CF8A4664E21CC89C26224620214E PUSH2 0xB99 DUP2 PUSH2 0xE80 JUMP JUMPDEST POP PUSH1 0x33 DUP1 SLOAD PUSH1 0x1 PUSH1 0x1 PUSH1 0xA0 SHL SUB SWAP4 DUP5 AND PUSH1 0x1 PUSH1 0x1 PUSH1 0xA0 SHL SUB NOT SWAP2 DUP3 AND OR SWAP1 SWAP2 SSTORE PUSH1 0x34 DUP1 SLOAD SWAP3 SWAP1 SWAP4 AND SWAP2 AND OR SWAP1 SSTORE JUMP JUMPDEST PUSH2 0xBD1 DUP3 PUSH2 0x494 JUMP JUMPDEST PUSH2 0xBDA DUP2 PUSH2 0xE80 JUMP JUMPDEST PUSH2 0x4D2 DUP4 DUP4 PUSH2 0xF36 JUMP JUMPDEST PUSH32 0xFAC2CA1F36146FAA39C5BCC0B960D021EA7055CEBA427ADB32A1937CB8AF07E8 PUSH2 0xC0E DUP2 PUSH2 0xE80 JUMP JUMPDEST PUSH1 0x0 DUP4 DUP2 MSTORE PUSH1 0x32 PUSH1 0x20 MSTORE PUSH1 0x40 SWAP1 KECCAK256 PUSH1 0x2 PUSH1 0x5 DUP3 ADD SLOAD PUSH1 0xFF AND PUSH1 0x4 DUP2 GT ISZERO PUSH2 0xC37 JUMPI PUSH2 0xC37 PUSH2 0x1365 JUMP JUMPDEST EQ PUSH2 0xC84 JUMPI PUSH1 0x40 MLOAD PUSH3 0x461BCD PUSH1 0xE5 SHL DUP2 MSTORE PUSH1 0x20 PUSH1 0x4 DUP3 ADD MSTORE PUSH1 0x1E PUSH1 0x24 DUP3 ADD MSTORE PUSH32 0x426174746C65206973206E6F7420696E2073746174652050454E44494E470000 PUSH1 0x44 DUP3 ADD MSTORE PUSH1 0x64 ADD PUSH2 0x60A JUMP JUMPDEST PUSH2 0xC8F PUSH1 0x2 DUP5 PUSH2 0x150A JUMP JUMPDEST PUSH1 0x0 SUB PUSH2 0xD8B JUMPI PUSH1 0x5 DUP2 ADD DUP1 SLOAD PUSH1 0xFF NOT AND PUSH1 0x3 SWAP1 DUP2 OR SWAP1 SWAP2 SSTORE PUSH1 0x33 SLOAD PUSH1 0x1 DUP4 ADD SLOAD SWAP2 DUP4 ADD SLOAD PUSH1 0x40 MLOAD PUSH4 0x23B872DD PUSH1 0xE0 SHL DUP2 MSTORE PUSH1 0x1 PUSH1 0x1 PUSH1 0xA0 SHL SUB SWAP3 DUP4 AND SWAP4 PUSH4 0x23B872DD SWAP4 PUSH2 0xCE7 SWAP4 ADDRESS SWAP4 SWAP2 SWAP1 SWAP3 AND SWAP2 SWAP1 PUSH1 0x4 ADD PUSH2 0x14BF JUMP JUMPDEST PUSH1 0x0 PUSH1 0x40 MLOAD DUP1 DUP4 SUB DUP2 PUSH1 0x0 DUP8 DUP1 EXTCODESIZE ISZERO DUP1 ISZERO PUSH2 0xD01 JUMPI PUSH1 0x0 DUP1 REVERT JUMPDEST POP GAS CALL ISZERO DUP1 ISZERO PUSH2 0xD15 JUMPI RETURNDATASIZE PUSH1 0x0 DUP1 RETURNDATACOPY RETURNDATASIZE PUSH1 0x0 REVERT JUMPDEST POP POP PUSH1 0x34 SLOAD PUSH1 0x1 DUP5 ADD SLOAD PUSH1 0x4 DUP1 DUP7 ADD SLOAD PUSH1 0x40 MLOAD PUSH4 0x23B872DD PUSH1 0xE0 SHL DUP2 MSTORE PUSH1 0x1 PUSH1 0x1 PUSH1 0xA0 SHL SUB SWAP5 DUP6 AND SWAP7 POP PUSH4 0x23B872DD SWAP6 POP PUSH2 0xD54 SWAP5 ADDRESS SWAP5 AND SWAP3 ADD PUSH2 0x14BF JUMP JUMPDEST PUSH1 0x0 PUSH1 0x40 MLOAD DUP1 DUP4 SUB DUP2 PUSH1 0x0 DUP8 DUP1 EXTCODESIZE ISZERO DUP1 ISZERO PUSH2 0xD6E JUMPI PUSH1 0x0 DUP1 REVERT JUMPDEST POP GAS CALL ISZERO DUP1 ISZERO PUSH2 0xD82 JUMPI RETURNDATASIZE PUSH1 0x0 DUP1 RETURNDATACOPY RETURNDATASIZE PUSH1 0x0 REVERT JUMPDEST POP POP POP POP PUSH2 0x4D2 JUMP JUMPDEST PUSH1 0x5 DUP2 ADD DUP1 SLOAD PUSH1 0xFF NOT AND PUSH1 0x4 SWAP1 DUP2 OR SWAP1 SWAP2 SSTORE PUSH1 0x34 SLOAD PUSH1 0x2 DUP4 ADD SLOAD DUP3 DUP5 ADD SLOAD PUSH1 0x40 MLOAD PUSH4 0x23B872DD PUSH1 0xE0 SHL DUP2 MSTORE PUSH1 0x1 PUSH1 0x1 PUSH1 0xA0 SHL SUB SWAP4 DUP5 AND SWAP5 PUSH4 0x23B872DD SWAP5 PUSH2 0xDD9 SWAP5 ADDRESS SWAP5 SWAP2 AND SWAP3 SWAP1 SWAP2 ADD PUSH2 0x14BF JUMP JUMPDEST PUSH1 0x0 PUSH1 0x40 MLOAD DUP1 DUP4 SUB DUP2 PUSH1 0x0 DUP8 DUP1 EXTCODESIZE ISZERO DUP1 ISZERO PUSH2 0xDF3 JUMPI PUSH1 0x0 DUP1 REVERT JUMPDEST POP GAS CALL ISZERO DUP1 ISZERO PUSH2 0xE07 JUMPI RETURNDATASIZE PUSH1 0x0 DUP1 RETURNDATACOPY RETURNDATASIZE PUSH1 0x0 REVERT JUMPDEST POP POP PUSH1 0x33 SLOAD PUSH1 0x2 DUP5 ADD SLOAD PUSH1 0x3 DUP6 ADD SLOAD PUSH1 0x40 MLOAD PUSH4 0x23B872DD PUSH1 0xE0 SHL DUP2 MSTORE PUSH1 0x1 PUSH1 0x1 PUSH1 0xA0 SHL SUB SWAP4 DUP5 AND SWAP6 POP PUSH4 0x23B872DD SWAP5 POP PUSH2 0xE48 SWAP4 ADDRESS SWAP4 AND SWAP2 SWAP1 PUSH1 0x4 ADD PUSH2 0x14BF JUMP JUMPDEST PUSH1 0x0 PUSH1 0x40 MLOAD DUP1 DUP4 SUB DUP2 PUSH1 0x0 DUP8 DUP1 EXTCODESIZE ISZERO DUP1 ISZERO PUSH2 0xE62 JUMPI PUSH1 0x0 DUP1 REVERT JUMPDEST POP GAS CALL ISZERO DUP1 ISZERO PUSH2 0xE76 JUMPI RETURNDATASIZE PUSH1 0x0 DUP1 RETURNDATACOPY RETURNDATASIZE PUSH1 0x0 REVERT JUMPDEST POP POP POP POP POP POP POP POP JUMP JUMPDEST PUSH2 0x530 DUP2 CALLER PUSH2 0x117A JUMP JUMPDEST PUSH1 0x0 PUSH1 0x0 DUP1 MLOAD PUSH1 0x20 PUSH2 0x154D DUP4 CODECOPY DUP2 MLOAD SWAP2 MSTORE PUSH2 0xEA5 DUP5 DUP5 PUSH2 0xA27 JUMP JUMPDEST PUSH2 0xF25 JUMPI PUSH1 0x0 DUP5 DUP2 MSTORE PUSH1 0x20 DUP3 DUP2 MSTORE PUSH1 0x40 DUP1 DUP4 KECCAK256 PUSH1 0x1 PUSH1 0x1 PUSH1 0xA0 SHL SUB DUP8 AND DUP5 MSTORE SWAP1 SWAP2 MSTORE SWAP1 KECCAK256 DUP1 SLOAD PUSH1 0xFF NOT AND PUSH1 0x1 OR SWAP1 SSTORE PUSH2 0xEDB CALLER SWAP1 JUMP JUMPDEST PUSH1 0x1 PUSH1 0x1 PUSH1 0xA0 SHL SUB AND DUP4 PUSH1 0x1 PUSH1 0x1 PUSH1 0xA0 SHL SUB AND DUP6 PUSH32 0x2F8788117E7EFF1D82E926EC794901D17C78024A50270940304540A733656F0D PUSH1 0x40 MLOAD PUSH1 0x40 MLOAD DUP1 SWAP2 SUB SWAP1 LOG4 PUSH1 0x1 SWAP2 POP POP PUSH2 0x48E JUMP JUMPDEST PUSH1 0x0 SWAP2 POP POP PUSH2 0x48E JUMP JUMPDEST POP SWAP3 SWAP2 POP POP JUMP JUMPDEST PUSH1 0x0 PUSH1 0x0 DUP1 MLOAD PUSH1 0x20 PUSH2 0x154D DUP4 CODECOPY DUP2 MLOAD SWAP2 MSTORE PUSH2 0xF51 DUP5 DUP5 PUSH2 0xA27 JUMP JUMPDEST ISZERO PUSH2 0xF25 JUMPI PUSH1 0x0 DUP5 DUP2 MSTORE PUSH1 0x20 DUP3 DUP2 MSTORE PUSH1 0x40 DUP1 DUP4 KECCAK256 PUSH1 0x1 PUSH1 0x1 PUSH1 0xA0 SHL SUB DUP8 AND DUP1 DUP6 MSTORE SWAP3 MSTORE DUP1 DUP4 KECCAK256 DUP1 SLOAD PUSH1 0xFF NOT AND SWAP1 SSTORE MLOAD CALLER SWAP3 DUP8 SWAP2 PUSH32 0xF6391F5C32D9C69D2A47EA670B442974B53935D1EDC7FD64EB21E047A839171B SWAP2 SWAP1 LOG4 PUSH1 0x1 SWAP2 POP POP PUSH2 0x48E JUMP JUMPDEST PUSH2 0xFBA PUSH2 0x11B3 JUMP JUMPDEST PUSH1 0x0 DUP1 MLOAD PUSH1 0x20 PUSH2 0x156D DUP4 CODECOPY DUP2 MLOAD SWAP2 MSTORE DUP1 SLOAD PUSH1 0xFF NOT AND DUP2 SSTORE PUSH32 0x5DB9EE0A495BF2E6FF9C91A7834C1BA4FDD244A5E8AA4E537BD38AEAE4B073AA CALLER JUMPDEST PUSH1 0x40 MLOAD PUSH1 0x1 PUSH1 0x1 PUSH1 0xA0 SHL SUB SWAP1 SWAP2 AND DUP2 MSTORE PUSH1 0x20 ADD PUSH1 0x40 MLOAD DUP1 SWAP2 SUB SWAP1 LOG1 POP JUMP JUMPDEST PUSH2 0x101A PUSH2 0x11E5 JUMP JUMPDEST PUSH1 0x0 DUP1 MLOAD PUSH1 0x20 PUSH2 0x156D DUP4 CODECOPY DUP2 MLOAD SWAP2 MSTORE DUP1 SLOAD PUSH1 0xFF NOT AND PUSH1 0x1 OR DUP2 SSTORE PUSH32 0x62E78CEA01BEE320CD4E420270B5EA74000D11B0C9F74754EBDBFC544B05A258 CALLER PUSH2 0xFF4 JUMP JUMPDEST PUSH2 0x1063 PUSH2 0x1216 JUMP JUMPDEST PUSH2 0x106B PUSH2 0x125F JUMP JUMPDEST PUSH2 0x1073 PUSH2 0x126F JUMP JUMPDEST PUSH2 0x107B PUSH2 0x1277 JUMP JUMPDEST PUSH2 0x1086 PUSH1 0x0 DUP3 PUSH2 0xE8A JUMP JUMPDEST POP PUSH2 0x109F PUSH1 0x0 DUP1 MLOAD PUSH1 0x20 PUSH2 0x152D DUP4 CODECOPY DUP2 MLOAD SWAP2 MSTORE DUP3 PUSH2 0xE8A JUMP JUMPDEST POP PUSH2 0x10CA PUSH32 0xB19546DFF01E856FB3F010C267A7B1C60363CF8A4664E21CC89C26224620214E DUP3 PUSH2 0xE8A JUMP JUMPDEST POP PUSH2 0x10F5 PUSH32 0x9F2DF0FED2C77648DE5860A4CC508CD0818C85B8B8A1AB4CEEEF8D981C8956A6 DUP3 PUSH2 0xE8A JUMP JUMPDEST POP PUSH2 0x1120 PUSH32 0xA49807205CE4D355092EF5A8A18F56E8913CF4A201FBE287825B095693C21775 DUP3 PUSH2 0xE8A JUMP JUMPDEST POP PUSH2 0x114B PUSH32 0x35AF5B5A3FB4C88A8CB5E26E8A68A53CC8F6CAFCC4000A1DB1AE5753E25A168E DUP3 PUSH2 0xE8A JUMP JUMPDEST POP PUSH2 0x1176 PUSH32 0xFAC2CA1F36146FAA39C5BCC0B960D021EA7055CEBA427ADB32A1937CB8AF07E8 DUP3 PUSH2 0xE8A JUMP JUMPDEST POP POP JUMP JUMPDEST PUSH2 0x1184 DUP3 DUP3 PUSH2 0xA27 JUMP JUMPDEST PUSH2 0x1176 JUMPI PUSH1 0x40 MLOAD PUSH4 0xE2517D3F PUSH1 0xE0 SHL DUP2 MSTORE PUSH1 0x1 PUSH1 0x1 PUSH1 0xA0 SHL SUB DUP3 AND PUSH1 0x4 DUP3 ADD MSTORE PUSH1 0x24 DUP2 ADD DUP4 SWAP1 MSTORE PUSH1 0x44 ADD PUSH2 0x60A JUMP JUMPDEST PUSH1 0x0 DUP1 MLOAD PUSH1 0x20 PUSH2 0x156D DUP4 CODECOPY DUP2 MLOAD SWAP2 MSTORE SLOAD PUSH1 0xFF AND PUSH2 0x11E3 JUMPI PUSH1 0x40 MLOAD PUSH4 0x8DFC202B PUSH1 0xE0 SHL DUP2 MSTORE PUSH1 0x4 ADD PUSH1 0x40 MLOAD DUP1 SWAP2 SUB SWAP1 REVERT JUMPDEST JUMP JUMPDEST PUSH1 0x0 DUP1 MLOAD PUSH1 0x20 PUSH2 0x156D DUP4 CODECOPY DUP2 MLOAD SWAP2 MSTORE SLOAD PUSH1 0xFF AND ISZERO PUSH2 0x11E3 JUMPI PUSH1 0x40 MLOAD PUSH4 0xD93C0665 PUSH1 0xE0 SHL DUP2 MSTORE PUSH1 0x4 ADD PUSH1 0x40 MLOAD DUP1 SWAP2 SUB SWAP1 REVERT JUMPDEST PUSH32 0xF0C57E16840DF040F15088DC2F81FE391C3923BEC73E23A9662EFC9C229C6A00 SLOAD PUSH1 0x1 PUSH1 0x40 SHL SWAP1 DIV PUSH1 0xFF AND PUSH2 0x11E3 JUMPI PUSH1 0x40 MLOAD PUSH4 0x1AFCD79F PUSH1 0xE3 SHL DUP2 MSTORE PUSH1 0x4 ADD PUSH1 0x40 MLOAD DUP1 SWAP2 SUB SWAP1 REVERT JUMPDEST PUSH2 0x1267 PUSH2 0x1216 JUMP JUMPDEST PUSH2 0x11E3 PUSH2 0x1287 JUMP JUMPDEST PUSH2 0x11E3 PUSH2 0x1216 JUMP JUMPDEST PUSH2 0x127F PUSH2 0x1216 JUMP JUMPDEST PUSH2 0x11E3 PUSH2 0x12A8 JUMP JUMPDEST PUSH2 0x128F PUSH2 0x1216 JUMP JUMPDEST PUSH1 0x0 DUP1 MLOAD PUSH1 0x20 PUSH2 0x156D DUP4 CODECOPY DUP2 MLOAD SWAP2 MSTORE DUP1 SLOAD PUSH1 0xFF NOT AND SWAP1 SSTORE JUMP JUMPDEST PUSH2 0x12B0 PUSH2 0x1216 JUMP JUMPDEST PUSH1 0x1 PUSH32 0x9B779B17422D0DF92223018B32B4D1FA46E071723D6817E2486D003BECC55F00 SSTORE JUMP JUMPDEST PUSH1 0x0 PUSH1 0x20 DUP3 DUP5 SUB SLT ISZERO PUSH2 0x12E8 JUMPI PUSH1 0x0 DUP1 REVERT JUMPDEST DUP2 CALLDATALOAD PUSH1 0x1 PUSH1 0x1 PUSH1 0xE0 SHL SUB NOT DUP2 AND DUP2 EQ PUSH2 0x1300 JUMPI PUSH1 0x0 DUP1 REVERT JUMPDEST SWAP4 SWAP3 POP POP POP JUMP JUMPDEST PUSH1 0x0 PUSH1 0x20 DUP3 DUP5 SUB SLT ISZERO PUSH2 0x1319 JUMPI PUSH1 0x0 DUP1 REVERT JUMPDEST POP CALLDATALOAD SWAP2 SWAP1 POP JUMP JUMPDEST PUSH1 0x1 PUSH1 0x1 PUSH1 0xA0 SHL SUB DUP2 AND DUP2 EQ PUSH2 0x530 JUMPI PUSH1 0x0 DUP1 REVERT JUMPDEST PUSH1 0x0 DUP1 PUSH1 0x40 DUP4 DUP6 SUB SLT ISZERO PUSH2 0x1348 JUMPI PUSH1 0x0 DUP1 REVERT JUMPDEST DUP3 CALLDATALOAD SWAP2 POP PUSH1 0x20 DUP4 ADD CALLDATALOAD PUSH2 0x135A DUP2 PUSH2 0x1320 JUMP JUMPDEST DUP1 SWAP2 POP POP SWAP3 POP SWAP3 SWAP1 POP JUMP JUMPDEST PUSH4 0x4E487B71 PUSH1 0xE0 SHL PUSH1 0x0 MSTORE PUSH1 0x21 PUSH1 0x4 MSTORE PUSH1 0x24 PUSH1 0x0 REVERT JUMPDEST PUSH1 0x5 DUP2 LT PUSH2 0x1399 JUMPI PUSH4 0x4E487B71 PUSH1 0xE0 SHL PUSH1 0x0 MSTORE PUSH1 0x21 PUSH1 0x4 MSTORE PUSH1 0x24 PUSH1 0x0 REVERT JUMPDEST SWAP1 MSTORE JUMP JUMPDEST DUP7 DUP2 MSTORE PUSH1 0x1 PUSH1 0x1 PUSH1 0xA0 SHL SUB DUP7 DUP2 AND PUSH1 0x20 DUP4 ADD MSTORE DUP6 AND PUSH1 0x40 DUP3 ADD MSTORE PUSH1 0x60 DUP2 ADD DUP5 SWAP1 MSTORE PUSH1 0x80 DUP2 ADD DUP4 SWAP1 MSTORE PUSH1 0xC0 DUP2 ADD PUSH2 0x13D6 PUSH1 0xA0 DUP4 ADD DUP5 PUSH2 0x137B JUMP JUMPDEST SWAP8 SWAP7 POP POP POP POP POP POP POP JUMP JUMPDEST PUSH1 0x0 PUSH1 0xC0 DUP3 ADD SWAP1 POP DUP3 MLOAD DUP3 MSTORE PUSH1 0x20 DUP4 ADD MLOAD PUSH1 0x1 DUP1 PUSH1 0xA0 SHL SUB DUP1 DUP3 AND PUSH1 0x20 DUP6 ADD MSTORE DUP1 PUSH1 0x40 DUP7 ADD MLOAD AND PUSH1 0x40 DUP6 ADD MSTORE POP POP PUSH1 0x60 DUP4 ADD MLOAD PUSH1 0x60 DUP4 ADD MSTORE PUSH1 0x80 DUP4 ADD MLOAD PUSH1 0x80 DUP4 ADD MSTORE PUSH1 0xA0 DUP4 ADD MLOAD PUSH2 0xF2F PUSH1 0xA0 DUP5 ADD DUP3 PUSH2 0x137B JUMP JUMPDEST PUSH1 0x0 PUSH1 0x20 DUP3 DUP5 SUB SLT ISZERO PUSH2 0x1447 JUMPI PUSH1 0x0 DUP1 REVERT JUMPDEST DUP2 CALLDATALOAD PUSH2 0x1300 DUP2 PUSH2 0x1320 JUMP JUMPDEST PUSH1 0x0 DUP1 PUSH1 0x40 DUP4 DUP6 SUB SLT ISZERO PUSH2 0x1465 JUMPI PUSH1 0x0 DUP1 REVERT JUMPDEST DUP3 CALLDATALOAD PUSH2 0x1470 DUP2 PUSH2 0x1320 JUMP JUMPDEST SWAP2 POP PUSH1 0x20 DUP4 ADD CALLDATALOAD PUSH2 0x135A DUP2 PUSH2 0x1320 JUMP JUMPDEST PUSH1 0x0 DUP1 PUSH1 0x40 DUP4 DUP6 SUB SLT ISZERO PUSH2 0x1493 JUMPI PUSH1 0x0 DUP1 REVERT JUMPDEST POP POP DUP1 CALLDATALOAD SWAP3 PUSH1 0x20 SWAP1 SWAP2 ADD CALLDATALOAD SWAP2 POP JUMP JUMPDEST PUSH1 0x0 PUSH1 0x20 DUP3 DUP5 SUB SLT ISZERO PUSH2 0x14B4 JUMPI PUSH1 0x0 DUP1 REVERT JUMPDEST DUP2 MLOAD PUSH2 0x1300 DUP2 PUSH2 0x1320 JUMP JUMPDEST PUSH1 0x1 PUSH1 0x1 PUSH1 0xA0 SHL SUB SWAP4 DUP5 AND DUP2 MSTORE SWAP2 SWAP1 SWAP3 AND PUSH1 0x20 DUP3 ADD MSTORE PUSH1 0x40 DUP2 ADD SWAP2 SWAP1 SWAP2 MSTORE PUSH1 0x60 ADD SWAP1 JUMP JUMPDEST PUSH1 0x0 PUSH1 0x1 DUP3 ADD PUSH2 0x1503 JUMPI PUSH4 0x4E487B71 PUSH1 0xE0 SHL PUSH1 0x0 MSTORE PUSH1 0x11 PUSH1 0x4 MSTORE PUSH1 0x24 PUSH1 0x0 REVERT JUMPDEST POP PUSH1 0x1 ADD SWAP1 JUMP JUMPDEST PUSH1 0x0 DUP3 PUSH2 0x1527 JUMPI PUSH4 0x4E487B71 PUSH1 0xE0 SHL PUSH1 0x0 MSTORE PUSH1 0x12 PUSH1 0x4 MSTORE PUSH1 0x24 PUSH1 0x0 REVERT JUMPDEST POP MOD SWAP1 JUMP INVALID PUSH6 0xD7A28E3265B3 PUSH27 0x6474929F336521B332C1681B933F6CB9F3376673440D862A02DD7B 0xC7 0xDE 0xC4 0xDC 0xEE 0xDD 0xA7 PUSH22 0xE58DD541E08A116C6C53815C0BD028192F7B626800CD 0x5E 0xD1 0x5C PUSH15 0x187E77E9AEE88184C21F4F2182AB58 0x27 0xCB EXTCODESIZE PUSH31 0x7FBEDCD63F03300A264697066735822122009A62E9EB0724BB567AE13A6C4 JUMPDEST 0xB3 CREATE CALLDATALOAD PUSH32 0xE5DE4A7FF7367127CABA05DA1CC564736F6C6343000814003300000000000000 "},"gasEstimates":{"creation":{"codeDepositCost":"1114000","executionCost":"1160","totalCost":"1115160"},"external":{"ADMIN_ROLE()":"285","DEFAULT_ADMIN_ROLE()":"262","MINTER_ROLE()":"262","OWNER_ROLE()":"239","PAUSER_ROLE()":"infinite","UTILITY_ROLE()":"218","VRF_CALLBACK_DELIVERY_ROLE()":"240","battleIdCounter()":"2405","battleIdToBattleInstance(uint256)":"13320","decideWinner(uint256,uint256)":"infinite","getBattleData(uint256)":"13768","getRoleAdmin(bytes32)":"infinite","grantRole(bytes32,address)":"infinite","hasRole(bytes32,address)":"infinite","initialize(address)":"infinite","joinBattle(uint256)":"infinite","knightNFT()":"2427","pause()":"infinite","paused()":"infinite","renounceRole(bytes32,address)":"29211","revokeRole(bytes32,address)":"infinite","samuraiNFT()":"2470","setNFTContracts(address,address)":"infinite","startBattle(uint256)":"infinite","supportsInterface(bytes4)":"450","unpause()":"infinite"}},"methodIdentifiers":{"ADMIN_ROLE()":"75b238fc","DEFAULT_ADMIN_ROLE()":"a217fddf","MINTER_ROLE()":"d5391393","OWNER_ROLE()":"e58378bb","PAUSER_ROLE()":"e63ab1e9","UTILITY_ROLE()":"8f296759","VRF_CALLBACK_DELIVERY_ROLE()":"d4abd2f4","battleIdCounter()":"fe3edcd1","battleIdToBattleInstance(uint256)":"82bea4ce","decideWinner(uint256,uint256)":"f9d6d6bf","getBattleData(uint256)":"8c5e6dc1","getRoleAdmin(bytes32)":"248a9ca3","grantRole(bytes32,address)":"2f2ff15d","hasRole(bytes32,address)":"91d14854","initialize(address)":"c4d66de8","joinBattle(uint256)":"4a042f0d","knightNFT()":"331353ad","pause()":"8456cb59","paused()":"5c975abb","renounceRole(bytes32,address)":"36568abe","revokeRole(bytes32,address)":"d547741f","samuraiNFT()":"c97dd0f9","setNFTContracts(address,address)":"c7bb3fda","startBattle(uint256)":"8e6807f8","supportsInterface(bytes4)":"01ffc9a7","unpause()":"3f4ba83a"}},"storageLayout":{"storage":[{"astId":4073,"contract":"contracts/Battle.sol:Battle","label":"__gap","offset":0,"slot":"0","type":"t_array(t_uint256)50_storage"},{"astId":4107,"contract":"contracts/Battle.sol:Battle","label":"battleIdToBattleInstance","offset":0,"slot":"50","type":"t_mapping(t_uint256,t_struct(BattleInstance)4099_storage)"},{"astId":4110,"contract":"contracts/Battle.sol:Battle","label":"knightNFT","offset":0,"slot":"51","type":"t_contract(IERC721)2476"},{"astId":4113,"contract":"contracts/Battle.sol:Battle","label":"samuraiNFT","offset":0,"slot":"52","type":"t_contract(IERC721)2476"},{"astId":4115,"contract":"contracts/Battle.sol:Battle","label":"battleIdCounter","offset":0,"slot":"53","type":"t_uint256"}],"types":{"t_address":{"encoding":"inplace","label":"address","numberOfBytes":"20"},"t_array(t_uint256)50_storage":{"base":"t_uint256","encoding":"inplace","label":"uint256[50]","numberOfBytes":"1600"},"t_contract(IERC721)2476":{"encoding":"inplace","label":"contract IERC721","numberOfBytes":"20"},"t_enum(BattleState)4085":{"encoding":"inplace","label":"enum BattleState","numberOfBytes":"1"},"t_mapping(t_uint256,t_struct(BattleInstance)4099_storage)":{"encoding":"mapping","key":"t_uint256","label":"mapping(uint256 => struct BattleInstance)","numberOfBytes":"32","value":"t_struct(BattleInstance)4099_storage"},"t_struct(BattleInstance)4099_storage":{"encoding":"inplace","label":"struct BattleInstance","members":[{"astId":4087,"contract":"contracts/Battle.sol:Battle","label":"battleId","offset":0,"slot":"0","type":"t_uint256"},{"astId":4089,"contract":"contracts/Battle.sol:Battle","label":"playerOne","offset":0,"slot":"1","type":"t_address"},{"astId":4091,"contract":"contracts/Battle.sol:Battle","label":"playerTwo","offset":0,"slot":"2","type":"t_address"},{"astId":4093,"contract":"contracts/Battle.sol:Battle","label":"playerOneTokenId","offset":0,"slot":"3","type":"t_uint256"},{"astId":4095,"contract":"contracts/Battle.sol:Battle","label":"playerTwoTokenId","offset":0,"slot":"4","type":"t_uint256"},{"astId":4098,"contract":"contracts/Battle.sol:Battle","label":"state","offset":0,"slot":"5","type":"t_enum(BattleState)4085"}],"numberOfBytes":"192"},"t_uint256":{"encoding":"inplace","label":"uint256","numberOfBytes":"32"}}},"userdoc":{"errors":{"BattleAlreadyComplete()":[{"notice":"Error if the battle is already complete"}],"BattleAlreadyStarted()":[{"notice":"Error if the battle is already started"}],"InvalidValues()":[{"notice":"ERRORS *"}]},"events":{"BattleStarted(uint256)":{"notice":"EVENTS *"}},"kind":"user","methods":{"OWNER_ROLE()":{"notice":"ROLES *"},"battleIdToBattleInstance(uint256)":{"notice":"VARIABLES *"},"initialize(address)":{"notice":"FUNCTIONS *"}},"version":1}}}}